:020000040000fa
:080000000001040000000000f3
:020000040000fa
:04000800c80100002b
:020000040000fa
:04000c00c801000027
:020000040000fa
:04001000c801000023
:020000040000fa
:04001400c80100001f
:020000040000fa
:04001800c80100001b
:020000040000fa
:04001c00c801000017
:020000040000fa
:04002000c801000013
:020000040000fa
:04002400c80100000f
:020000040000fa
:04002800c80100000b
:020000040000fa
:04002c00c801000007
:020000040000fa
:04003000c801000003
:020000040000fa
:04003400c8010000ff
:020000040000fa
:04003800c8010000fb
:020000040000fa
:04003c00c8010000f7
:020000040000fa
:04004000c8010000f3
:020000040000fa
:04004400c8010000ef
:020000040000fa
:04004800c8010000eb
:020000040000fa
:04004c00c8010000e7
:020000040000fa
:04005000c8010000e3
:020000040000fa
:04005400c8010000df
:020000040000fa
:04005800c8010000db
:020000040000fa
:04005c00c8010000d7
:020000040000fa
:04006000c8010000d3
:020000040000fa
:04006400c8010000cf
:020000040000fa
:04006800c8010000cb
:020000040000fa
:04006c00c8010000c7
:020000040000fa
:04007000c8010000c3
:020000040000fa
:04007400c8010000bf
:020000040000fa
:04007800c8010000bb
:020000040000fa
:04007c00c8010000b7
:020000040000fa
:04008000c8010000b3
:020000040000fa
:04008400c8010000af
:020000040000fa
:04008800c8010000ab
:020000040000fa
:04008c00c8010000a7
:020000040000fa
:04009000c8010000a3
:020000040000fa
:04009400c80100009f
:020000040000fa
:04009800c80100009b
:020000040000fa
:04009c00c801000097
:020000040000fa
:0400a000c801000093
:020000040000fa
:0400a400c80100008f
:020000040000fa
:0400a800c80100008b
:020000040000fa
:0400ac00c801000087
:020000040000fa
:0400b000c801000083
:020000040000fa
:0400b400c80100007f
:020000040000fa
:0400b800c80100007b
:020000040000fa
:0400bc00c801000077
:020000040000fa
:0400c000c801000073
:020000040000fa
:0400c400c80100006f
:020000040000fa
:0400c800c80100006b
:020000040000fa
:0400cc00c801000067
:020000040000fa
:0400d000c801000063
:020000040000fa
:0400d400c80100005f
:020000040000fa
:0400d800c80100005b
:020000040000fa
:04010800c80100002a
:020000040000fa
:04010c00c801000026
:020000040000fa
:04011000c801000022
:020000040000fa
:04011400c80100001e
:020000040000fa
:04011800c80100001a
:020000040000fa
:04011c00c801000016
:020000040000fa
:04012000c801000012
:020000040000fa
:04012400c80100000e
:020000040000fa
:04012800c80100000a
:020000040000fa
:04012c00c801000006
:020000040000fa
:04013000c801000002
:020000040000fa
:04013400c8010000fe
:020000040000fa
:04013800c8010000fa
:020000040000fa
:04013c00c8010000f6
:020000040000fa
:04014000c8010000f2
:020000040000fa
:04014400c8010000ee
:020000040000fa
:04014800c8010000ea
:020000040000fa
:04014c00c8010000e6
:020000040000fa
:04015000c8010000e2
:020000040000fa
:04015400c8010000de
:020000040000fa
:04015800c8010000da
:020000040000fa
:04015c00c8010000d6
:020000040000fa
:04016000c8010000d2
:020000040000fa
:04016400c8010000ce
:020000040000fa
:04016800c8010000ca
:020000040000fa
:04016c00c8010000c6
:020000040000fa
:04017000c8010000c2
:020000040000fa
:04017400c8010000be
:020000040000fa
:04017800c8010000ba
:020000040000fa
:04017c00c8010000b6
:020000040000fa
:04018000c8010000b2
:020000040000fa
:04018400c8010000ae
:020000040000fa
:04018800c8010000aa
:020000040000fa
:04018c00c8010000a6
:020000040000fa
:04019000c8010000a2
:020000040000fa
:04019400c80100009e
:020000040000fa
:04019800c80100009a
:020000040000fa
:04019c00c801000096
:020000040000fa
:0401a000c801000092
:020000040000fa
:0401a400c80100008e
:020000040000fa
:0401a800c80100008a
:020000040000fa
:0401ac00c801000086
:020000040000fa
:0401b000c801000082
:020000040000fa
:0401b400c80100007e
:020000040000fa
:0401b800c80100007a
:020000040000fa
:0401bc00c801000076
:020000040000fa
:0401c000c801000072
:020000040000fa
:0401c400c80100006e
:020000040000fa
:0401c800c80100006a
:020000040000fa
:0401cc00c801000066
:020000040000fa
:0401d000c801000062
:020000040000fa
:0401d400c80100005e
:020000040000fa
:0401d800c80100005a
:020000040000fa
:10020000afd820000eff20000e0188000000000083
:10021000000020000000e000020032000001200089
:1002200020028800140007005b0007000000e000c7
:1002300003003a0020842100010020000200370062
:100240000000200001002000810f7000010032003a
:1002500014000700000020000000e000020032004f
:1002600000000200000000009a15020000000000db
:100270000040da000000fe004440a900e03d2000fc
:100280000000e0000300320000002000a001880010
:100290004440a800000006008a1f78008b1f7800e9
:1002a0000000060091018800800478000000eb0047
:1002b0001a003700e284440032a0b4009905ba0065
:1002c000e284440032a0b4009906ba00e2844400fb
:1002d00032a0b4000006eb00476fde00fd07b2005d
:1002e000636ce10003003a00ebff07000000eb0045
:1002f0000a003700606ce10004003a00005deb008a
:100300008b05e900fdff3e00040037006168e10055
:10031000010032000086eb000b00070019c7ba008d
:100320001905ba000e04e00003003a000a00e000dc
:10033000e0ff3a0000000600fe07b2009e018800c0
:100340008a047800f5ff3700395dba008b05e900b3
:100350000c003200295dba008b05e900080032006c
:100360000c00e00003003a00e284440032a0b40034
:10037000f5ff370019ddba008b05e900faff3a00f6
:100380008904e800e184440032a0b40000000600c3
:100390000040da000000fe000000050003f0a200ab
:1003a000889fbe008a9fbe008c1f7800fe00070059
:1003b000050133006450e1004f0032006420e10089
:1003c0005200320003826c0007003b000905d00098
:1003d0000306d000820f54000c065d0002003900b5
:1003e00002003200890178000306780085825500fa
:1003f00004003d000003fd008103fd008502ea00ca
:100400008b854200840f720002003b0060001000e8
:10041000e08018006011b8000005eb007a28e100c8
:100420000a00390006007800c75ddd00f707b2005a
:10043000878075002d003700828171000a017800e5
:10044000610560008180d1000080d3008502e90051
:10045000f9ff3b00060440008784480002003b008f
:1004600060041400e0841c000988a3000700320027
:100470008a81710082817100610164008904d10068
:100480000884d3008b05e800170037000978a30023
:1004900013003a000b00e000130034008b05e90064
:1004a0000804440089844c000a4474000978a300bd
:1004b0000d003a000b00e000070034008b05e90056
:1004c0000804440089844c0001003a000b0020001d
:1004d0000978a300f7ff32000001eb0002003700ab
:1004e000828171000a017800740007000cf0a700f7
:1004f00001f0a000bd0037006420e10002003a00d6
:10050000838f6c00bd0033000801be000200be00f6
:10051000b6003700889fbe008a9fbe008c1f7800ff
:10052000a1000700a800330003866c006450e100be
:100530002e0032006420e100330032006150e100ff
:100540002f0032006120e100310032008585550026
:10055000eb07b00009002000080420000500370068
:100560000804440089844c000a003100060343005b
:1005700087834b000001530081815b00f8ff33004b
:100580000203be000800a0000804440089844c0057
:10059000f6ff3900c639dd00830173000100320027
:1005a000130020008904d1000884d3000998a30017
:1005b000050032000800a7000300a0008904d10054
:1005c0000884d3008b05e8008904d1000884d30097
:1005d0000001eb000281d2003800070001f0a10009
:1005e0000cf0a70001f0a000800037006420e100bb
:1005f000820032000801be000200be00f7ff370093
:100600006120e1007d0032006000b800f3ff370098
:100610000000200001f82700f0ff3700f4ff2f0052
:10062000260237000001be004a0007000470a70040
:1006300003f0a1006509b100160032000d0035007d
:100640006828e10006003500f0ff2f00f1ff2700c9
:100650000300e00013003b0001002800000005003b
:1006600000004000818048008502e900fcff3a005c
:1006700008003700f88f420002003c008000eb00c9
:10068000000005008100d1000080d3008502e80051
:10069000fcff3a000300e00002003b006000100095
:1006a000e0801800000006004f89de00820178001b
:1006b0001f0237006011b8002d02370081002000b2
:1006c000618055000b003d000b00200061fe2f00f3
:1006d0000100e1001d0034008281710061016400ad
:1006e0008904d1000884d3000000e800faff3a0032
:1006f00071002000610064000300700002006000cf
:100700000900320061044400e0844c000988a5001f
:10071000050032008b05e8006808e10002003a009d
:100720008904d1000884d300f20f20000258e100b0
:1007300005003d00c75ddd00f907b2008980750046
:1007400008007800000006000bf827008b007800f6
:1007500000000500c70ade00f107b200f50fb20085
:1007600008003200e1cf4200020032000170a00018
:1007700024000500810f700001003200040805000c
:1007800044000500810f700002003a0014000500cb
:100790008502e9000000400081c04800fcff3b00ea
:1007a0000170a000240005000004be00e9ff07005e
:1007b0000003be000405be000200be00e5ff070006
:1007c000844f7500000006000200be006450e10086
:1007d000050036006420e100020036000968a3002d
:1007e00001003a000800be000160a0004f0678003a
:1007f0004f05be004f04be0000000600f0ff2f00b2
:10080000f1ff2700f9ff3700889fbe008a9fbe00d6
:100810008c1f7800e4ff0700ebff330003866c00b9
:100820006450e100240032006420e100270032001f
:100830006150e100220032006120e100210032001d
:100840008b854200eb07b1000134b800003ab800d4
:100850000804420089844a00013ab8000030b80018
:100860008880400009014a00040033000000400075
:1008700081804800020149008b05e900c909dd00bb
:10088000830170000100320013002000c814de0054
:100890004814dd004709de001200b200c808de007f
:1008a0000884700085ff070001f0a1000cf0a7008c
:1008b00001f0a000cdff37006120e100cfff320042
:1008c0000801be000200be00f7ff37006150e100e2
:1008d000fcff3a00c9ff37000c00fa00889fbe00f9
:1008e0008a9fbe008c9fbe00afff07000206be00bd
:1008f000840578000200be000200200048010700c5
:1009000005003a008b02b3001200200044010700ea
:1009100001003a00f8856d000c01be00c60007001a
:100920000800be009b0032000b08a3009e003a00a6
:100930000df0a7000be0a00009f0a7000bf0a0004d
:1009400009f0a1000801be00bb0007000bf0a600e3
:100950009500320001003c000bd0a0008acf75004a
:10096000b20033006000b8006250e1009900390025
:10097000a1003e000b28a300a2003a000bf8a30040
:10098000060032000b58a300a70032000801be0089
:10099000a90007000800be00940032000800be0055
:1009a000b00007000004be00050578000bf0a700aa
:1009b0000b30a6000bf0a1005b079800324f20001f
:1009c00053f323005801070005003d000800be0056
:1009d00012002000950107000004be000a05e9008e
:1009e0004a0798006150b9002fff0700008fbe0032
:1009f0000c01be0084ff07000aff070030079800c3
:100a00000100e00002003d0060001000e0801800de
:100a1000f2ff2700820f5000e08f580064003e0074
:100a20000c00be00fffe070020079800f207200020
:100a3000820f5000e08f580005003c0012f82f0094
:100a4000f3ff2f00820f5000838f580009003d00f4
:100a50000a00e0000300320001003c000201ea004d
:100a6000020578006000b800200798003a07980057
:100a7000190037003e0090006100b9000aff07002e
:100a8000809fbe000c00be004109dd004811de0061
:100a90007208b100e20007000005be001e01be00a2
:100aa00059ff07004f01be003cfe0700809fbe00bb
:100ab0000c00be000a01be0038fe07001e01be0089
:100ac00051ff07004f01be0035fe070082212700bd
:100ad00013f323004cff07000005be002e0090001a
:100ae0006100b900f0fe070001f0a2000c01be0099
:100af0002bfe07000006be000800be006d010700c7
:100b00000c01be0040ff07000a01be0024fe0700e2
:100b1000809fbe004a0007002e0590000af0a70043
:100b20000a05ea00050037000800be000801be0003
:100b300035ff07000004be000c00be000801be0027
:100b40000a00a70030ff07000006be000a05d1001a
:100b5000f5ff3a005e01900002e0a60003003700b6
:100b60000001be00360007006afe07000004be0058
:100b70004f00be00480007000801be0022ff07002a
:100b80003e01900029010700de0590000bf0a70050
:100b900001f0a2004f06be004f05be004f04be008c
:100ba0000080fa000000060025000700f9ff37006a
:100bb000270007006000b8000bd0a7000bc0a00002
:100bc0000be0a7000bc0a2000bc0a70001f8270094
:100bd000f0ff37000df8a300020032001e000700ee
:100be000190007000bf8a300eaff32000b30a70042
:100bf00001f0a200e7ff37000df8a300f9ff3a006b
:100c0000f7ff37000801be000b000700e6ff3200c7
:100c100001003c000df0a2006000b8000df0a7003c
:100c200009000700dbff37000b000700f1ff27007a
:100c3000f0ff2f00d7ff370001000700ba00370090
:100c400001f823000000050001f82700000005005e
:100c5000200220000100370010022000406c8800b4
:100c6000000006000003be00bafe07006220e1009b
:100c7000020032000600be0005000500e507b100d5
:100c8000f107b20004f023008480700007f0a70091
:100c900001f0a00024000500889fbe008a9fbe00ce
:100ca0008c9fbe000004be00aafe07000800be0024
:100cb0006420e10048003e00550032007221270008
:100cc000132b240055fe070047003c000800be001f
:100cd000c2ec2800e32c2c009300070047003500ed
:100ce0000800be0001f0a10002002000033823002c
:100cf0008d000700430035000800be00b2a32a00a3
:100d000083fb2300c0fe07000200200003f0230045
:100d100001f0a70003f0a000a1fd070041fe0700bd
:100d20000005be0060fe070001f0a2000006be0044
:100d30000200280013f32300b3fe07000801be00e1
:100d400097fd0700809fbe000c00be0032082800ff
:100d5000e3952b00acfe07004f01be0090fd07009d
:100d60000006be000001be00a7fe0700809fbe0077
:100d70004241250083b82300a3fe070002002000a3
:100d800003e8230086fd07000c01be009efe07005d
:100d90000006be004f00be00f2f92b00c3d42300b2
:100da00099fe07000200200003f023007cfd0700ed
:100db0000c01be0079fd07000001be000c00be0062
:100dc000d4fd07000200200003f0230074fd07009b
:100dd00061014500950007004f06be004f05be00ab
:100de0004f04be000000060001f8270000002000ac
:100df00022022000426c8800f7ff37006000b80034
:100e0000fbff370001f8230000002000f2ff37004d
:100e100009f8a300f0ff32006000b800eeff3700d1
:100e2000889fbe008a9fbe000003be0049fe0700e7
:100e30008505780082815200020020006220e100d6
:100e400004003a00f307b100040035007718e10010
:100e5000040035000600be00140037006000b80032
:100e60000f003700f50f2000faff2f008502d10098
:100e70000a85d3008301e900fcff3b008184620006
:100e800000046500890f7400f2ff32008582ea00d9
:100e90000a85ea00818462000004650007fe0700fd
:100ea00007f0a70001f0a0000081eb000200e000c5
:100eb0004f05be004f04be0000000600889fbe0024
:100ec0008a9fbe00841f780037fe07004f0078001d
:100ed00011003300f0ff2f00838f6c0006003b00f1
:100ee000040565000a00a7000800370009f0a60005
:100ef0001000200008003700820f5400838f5c0030
:100f0000030039001000200001003e000000200016
:100f100009f0a7000000ea004f05be004f04be0024
:100f20000000e0000000060014002000e3ff37008e
:100f3000881f7800030478000300e00007003d00ec
:100f400060001000e080180060011900e0811900c5
:100f500002003b0001f02d000300370004000700f1
:100f600008f0a70001f0a0004f0478000000060080
:100f7000889fbe008a9fbe0000827000040271003c
:100f800004827100260032000004be000200be0090
:100f90006011b8006b092000950220000182cf008b
:100fa0000a0039000541b1000082cf000700390076
:100fb0000541b1000982cf00040039000541b100ac
:100fc0000882cf00010039000541b10005425200fe
:100fd000120032000a003b0082817100610164004e
:100fe0008100d1000080d3008984d3000884d3001d
:100ff0008b05e8000442e800f7ff3a0007003700dd
:101000000804440089844c000000480081804800a6
:101010008b05e9000442e900f9ff3a00a7fd07004b
:101020004f05be004f04be00000006000003be00d6
:10103000c8fd07006220e100020032000600be0089
:101040000000060085024100e30f20000328e100b4
:1010500005003c00a3fe2f000328e10007003d002f
:101060000500200001003700f50f200020022000bd
:10107000406c88006000b8000800370013002000b2
:101080008381520005003d008100d1000080d30023
:101090008301e800fcff3a0005002000c72add00bc
:1010a000f107b2008580700007f0a70001f0a000f2
:1010b00000000600889fbe008a9fbe008c9fbe0075
:1010c000e8fe0700850478000005be006420e1000a
:1010d00049003e006220e1000300320009003500b3
:1010e0000bf8a300440032000bf8a3000800320004
:1010f00010022000406c8800f0ff2f00f1ff270055
:101100003d00370001f82f00000020003a003700b2
:101110003d000700a1fc07000006be000a00be005b
:10112000324f200053f323003cfd0700060034003b
:101130000c00be003400070098fc07000006be004b
:101140000a00be00020037008904e9000c00be005e
:101150002d000700acfd07002b00070090fc0700e6
:101160000001be000c00be00eafc07000005be0046
:101170000001be00a4fd07000006be00a2f323008c
:10118000430d2c0086fc0700809fbe000c00be00b3
:10119000d2e32700d3f02b009bfd07004f01be00d8
:1011a000dcfc07000006be000a01be0096fd070039
:1011b0000a01be007afc07000006be006148b900c3
:1011c00039fd07000005be0032082800e3952b001a
:1011d0008dfd07000c01be0071fc07000006be007b
:1011e0000a00be000200280013f3230086fd07005a
:1011f0000c01be006afc07004f06be004f05be0092
:101200004f04be000000060003f0230002000500aa
:020000040000fa
:1012100000000000000000000000000000000000ce
:1012200000000000000000000000000000000000be
:1012300000c00000e0e00000e0e00000e0e00000ae
:10124000e0e00000e0e00000e0e00000e0e000009e
:10125000e0e00000e0e00000e0e00000c00000008e
:101260000000000000c00000e0e00000e0e000003e
:10127000e0e00000e0e00000e0e00000e0e000006e
:10128000e0e00000e0e00000e0e00000c00000005e
:101290000000000000c00000e0e00000e0e000000e
:1012a000e0e00000e0e00000e0e00000e0e000003e
:1012b000e0e00000e0e00000e0e00000c00000002e
:1012c0000000000000c00000e0e00000e0e00000de
:1012d000e0e00000e0e00000e0e00000e0e000000e
:1012e000e0e00000e0e00000e0e00000e0e00000fe
:1012f000c00000000000000000000000000000002e
:1013000000000000000000000000000000000000dd
:1013100000000000000000000000000000000000cd
:1013200000000000000000000000000000000000bd
:10133000000100000303000003030000030300009a
:1013400003ff0000ffff0000ffff00000303000099
:10135000030300000303000003030000010000007a
:101360000000000000ff0000ffff0000ffff000082
:10137000c3c30000c3c30000c3c30000c383000095
:10138000030300000303000003030000010000004a
:101390000000000000ff0000ffff0000ffff000052
:1013a000e3e30000e3e30000e3e30000e3e3000025
:1013b000e3e30000e3e30000e3e30000c10000001a
:1013c0000000000000010000030300000303000010
:1013d0000303000003ff0000ffff0000ffff000009
:1013e00003030000030300000303000003030000e5
:1013f00001000000000000000000000000000000ec
:1014000000000000000000000000000000000000dc
:1014100000000000000000000000000000000000cc
:1014200000000000000000000000000000000000bc
:1014300000000000000000000000000000000000ac
:1014400000ff0000ffff0000ffff000000000000a1
:10145000000000000000000000000000000000008c
:101460000000000000ff0000ffff0000ffff000081
:10147000c7c70000c7c70000c7c70000c7c3000038
:10148000c0c00000c0c00000c0c00000800000005c
:101490000000000080c10000c3c30000c3c30000ff
:1014a000c3c30000c3c30000c3c30000c3c3000024
:1014b000c3c30000ffff0000ffff0000ff000000ab
:1014c000000000000000000000000000000000001c
:1014d0000000000000ff0000ffff0000ffff000011
:1014e00000000000000000000000000000000000fc
:1014f00000000000000000000000000000000000ec
:1015000000000000000000000000000000000000db
:1015100000000000000000000000000000000000cb
:1015200000000000000000000000000000000000bb
:1015300000000000000000000000000000000000ab
:101540000003000007070000070300000000000080
:10155000000000000000000000000000000000008b
:10156000000000000003000007070000070700005c
:101570000707000007070000070700000707000033
:10158000070700000707000007070000030000002e
:101590000000000003070000070700000707000025
:1015a0000707000007070000070700000707000003
:1015b00007070000070700000707000003000000fe
:1015c000000000000000000000000000000000001b
:1015d00000000000000300000707000007030000f0
:1015e00000000000000000000000000000000000fb
:1015f00000000000000000000000000000000000eb
:1016000000000000000000000000000000000000da
:101610002b0000000000000000000000000000009f
:10162000005f00000000000000070000000700004d
:10163000001400007f1400007f140000242a000022
:101640006b2a0000122300001308000064620000ef
:101650003649000055320000400000000907000034
:1016600000000000001c00002241000000000000fb
:10167000412200001c000000140800003e08000089
:1016800014080000083e0000080800000050000098
:1016900030000000000800000808000008080000f2
:1016a0000060000060000000002000001008000042
:1016b000040200003e510000494500003e000000c9
:1016c000427f0000400000004261000051490000dc
:1016d00046210000414500004b3100001814000075
:1016e000127f00001027000045450000453900002a
:1016f0003c4a000049490000300300007109000025
:101700000503000036490000494900003606000084
:1017100049490000291e0000003600003600000084
:101720000000000056360000000000000814000011
:1017300022410000001400001414000014140000e2
:1017400000410000221400000802000001510000c6
:101750000906000032490000794100003e7e000089
:1017600011110000117e00007f490000494900006e
:10177000363e000041410000412200007f41000050
:10178000412200001c7f000049490000494100003f
:101790007f09000009090000013e000041410000ee
:1017a000497a00007f080000080800007f00000060
:1017b000417f00004100000020400000413f000048
:1017c000017f000008140000224100007f4000005b
:1017d00040400000407f0000020c0000027f00003b
:1017e0007f020000040800007f3e0000414100002d
:1017f000413e00007f09000009090000063e00008c
:1018000041510000215e00007f09000019290000fd
:10181000464600004949000049310000010100002e
:101820007f010000013f000040400000403f0000f9
:101830001f200000402000001f3f00004038000033
:10184000403f00006314000008140000630700001c
:1018500008700000080700006151000049450000c1
:10186000437f00004141000000000000020400002e
:10187000081000002000000000410000417f00002f
:10188000040200000102000004400000404000008b
:1018900040400000000100000204000000200000a1
:1018a00054540000547800007f4800004444000075
:1018b0003838000044440000442000003844000050
:1018c000444800007f3800005454000054180000c1
:1018d000087e000009010000020c000052520000c6
:1018e000523e00007f080000040400007800000061
:1018f000447d00004000000020400000443d000006
:10190000007f00001028000044000000004100009b
:101910007f400000007c0000040800000478000004
:101920007c080000040400007838000044440000f3
:10193000443800007c140000141400000808000063
:1019400014140000187c00007c080000040400004f
:10195000084800005454000054240000043f0000d4
:1019600044400000203c000040400000207c00007b
:101970001c200000402000001c3c00004030000003
:10198000403c00004428000010280000440c0000e7
:1019900050500000503c000044640000544c0000d3
:1019a0004400000008360000410000000000000074
:1019b0007f00000000000000413600000800000029
:0c19c00018040000081000000c000000db
:020000040000fa
:1019cc001600fa006007980071079800020f980043
:1019dc00130f9800240f98008e0890006e00900052
:1019ec000080500046040700100798009e089000e5
:1019fc007e009000008050004104070020079800f2
:101a0c00ee0090000e089000808f500002003d0008
:101a1c0010002000010037000080eb003007980018
:101a2c00fe0090001e089000808f500002003d00c8
:101a3c0010002000010037000080eb0040079800e8
:101a4c009e0090002e009000008f50000100370087
:101a5c00000000002e089000004078000041780043
:101a6c00fe0090006e009000b9060700ee0090009a
:101a7c000e089000808f500004003a00fe00900089
:101a8c001e089000808f5000190032001e00780054
:101a9c0000004000500798002e0090008000ea00e3
:101aac005e009000808f500006003d002e009000dc
:101abc001e0f1000ee0090003e00900000804000d1
:101acc0060079800de0090001e009000808f500090
:101adc00dfff3d001e0090001e0f4000fe00900036
:101aec004e0090000080400070079800d9ff37002e
:101afc000080fa00000006000a00fa0010079800a7
:101b0c002107980032079800430798003e00900088
:101b1c000000e00007003d003e0090000000ea00dd
:101b2c0030079800ae0090003e00900000805000fe
:101b3c00200798000000eb00000f78000900370028
:101b4c004e009000804078002e0090001e00400057
:101b5c0001417800800078001e0090007c06070090
:101b6c001e0fe8003e0090009e007800808f500011
:101b7c00f3ff35000080fa00000006000a00fa00ae
:101b8c001007980021079800320798004307980027
:101b9c003e0090000000e00007003d003e00900079
:101bac000000ea00300798009e0090003e00900074
:101bbc0000805000100798000000eb00000f780028
:101bcc00080037004e009000804078001e00900006
:101bdc001e00400001417800ae0090005c0607003a
:101bec001e0fe8003e0090009e007800808f500091
:101bfc00f4ff35000080fa00000006000a00fa002d
:101c0c00000f7800110798002207980033079800fe
:101c1c0044079800ce0190002e0190009e00900089
:101c2c001e007800d5ff07009e0090003e0090003b
:101c3c00008040000000e900ce0190002e019000d1
:101c4c00800078001e007800ccff0700ce019000c9
:101c5c003e0190009e0090001e007800a6ff070039
:101c6c002e0090001e0040000000e900ce01900004
:101c7c003e0190009e0090009fff07000080fa003c
:101c8c00000006000e00fa00000f78001107980003
:101c9c0022079800330798004407980055079800ce
:101cac00660798006e029000be0190002e01900015
:101cbc009e0090001e00780041ff07006e0290000d
:101ccc00de0190004e019000be0090002e009000ae
:101cdc003bff07006e029000de0190004e01900069
:101cec009e0090001e00780035ff07000080fa006f
:101cfc00000006001400fa005007980061079800d5
:101d0c0072079800030f9800140f9800fe009000c3
:101d1c00010f78000000eb0010079800fe00900007
:101d2c00e0ff2f000088b900000078000000e800f8
:101d3c002007980010002000300798000000eb00ee
:101d4c00400798000e0890000000e00003003500ea
:101d5c000e089000e30f50006b003400b000200020
:101d6c006e0037000e089000e10f50002b0032007f
:101d7c00e10f500003003c000000e000380032008e
:101d8c0048003700e20f500013003200e30f500000
:101d9c0044003a001e08900000417800ee009000cc
:101dac001e009000808040005e0090001e004000ed
:101dbc00e70507001e089000004178006e009000b7
:101dcc009e004000de0190001e009000008041004b
:101ddc00df050700330037001e0890000041780033
:101dec006e0090009e004000de0190001e009000ee
:101dfc0000805100d60507001e08900000417800b5
:101e0c00ee0090001e009000808040005e0090006c
:101e1c001e005000ce050700220037001e0890005f
:101e2c0000417800ee0090001e0090008080500071
:101e3c005e0090001e005000c50507001e089000b3
:101e4c00004178006e0090009e005000de01900072
:101e5c001e00900000805100bd05070011003700e6
:101e6c001e089000004178006e0090009e0050000b
:101e7c00de0190001e00900000804100b4050700b8
:101e8c001e08900000417800ee0090001e009000ab
:101e9c00808050005e0090001e004000ac050700e2
:101eac00000000001e0090000000e80010079800e1
:101ebc00ce0090003e00900000804000400798004b
:101ecc003e0090000080e800300798004e00900023
:101edc0000004000800078002e0090000080400040
:101eec000000e000080034001e0fe900ce00900056
:101efc002e00900000804000400798002e009000bb
:101f0c000080e800200798001e0090009e007800da
:101f1c00808f500093ff3d00a00020000080fa004d
:101f2c00000006001200fa005007980061079800a4
:101f3c0072079800030f9800fe009000010f7800c4
:101f4c000000eb0010079800fe009000e0ff2f004f
:101f5c000088b900000078000000e8002007980015
:101f6c0010002000300798000000eb00400798009c
:101f7c007e0090000000e0005b003d00b0002000ff
:101f8c005e0037000e08900000417800ee009000d3
:101f9c001e009000808040005e0090001e004000fb
:101fac006b0507000e089000004178006e00900051
:101fbc009e004000de0190001e0090000080410059
:101fcc00630507000e089000004178006e00900039
:101fdc009e004000de0190001e0090000080510029
:101fec005b0507000e08900000417800ee009000a1
:101ffc001e009000808040005e0090001e0050008b
:10200c00530507000e08900000417800ee00900088
:10201c001e009000808050005e0090001e0050005a
:10202c004b0507000e089000004178006e009000f0
:10203c009e005000de0190001e00900000805100b8
:10204c00430507000e089000004178006e009000d8
:10205c009e005000de0190001e00900000804100a8
:10206c003b0507000e08900000417800ee00900040
:10207c001e009000808050005e0090001e0040000a
:10208c00330507001e0090000000e80010079800c0
:10209c00ce0090003e009000008040004007980069
:1020ac003e0090000080e800300798004e00900041
:1020bc0000004000800078002e009000008040005e
:1020cc000000e000080034001e0fe900ce00900074
:1020dc002e00900000804000400798002e009000d9
:1020ec000080e800200798001e0090009e007800f9
:1020fc00808f5000a3ff3d00a00020000080fa005c
:10210c00000006000c00fa00000f78001107980080
:10211c002207980033079800440798005507980049
:10212c004e0090000000e00002003d00b0002000d6
:10213c0067003700ce009000e0ff2f000088b90048
:10214c00800078002e009000808040004e009000af
:10215c001e004000de019000010178009e009000fe
:10216c0086fe0700ce009000e0ff2f000088b9002b
:10217c00800078002e009000008140009e009000ae
:10218c003e009000008040008000e9004e0090006e
:10219c001e004000de01900078fe0700ce0090008b
:1021ac00e0ff2f000088b900800078003e0090000e
:1021bc00808040001e0190004e0090000000410005
:1021cc00de01900001017800800078001e0078008c
:1021dc0049fe0700ce009000e0ff2f000088b900f8
:1021ec00800078003e009000008140009e0090002e
:1021fc004e009000808040002e0090001e00400099
:10220c000000e900de0190003bfe07009e009000fc
:10221c004e009000808040004e0090001e00400058
:10222c005e029000130020004e019000b1fe0700ea
:10223c009e0090004e009000808040002e00900088
:10224c001e0140004e009000000051000000e9000b
:10225c005e0290008001eb004e019000a5fe07008d
:10226c009e0090003e009000808040004e00900048
:10227c00008050008000e9002e0090001e014000fc
:10228c004e009000000051000000e9005e0290003a
:10229c00330020004e01900096fe07009e00900037
:1022ac003e009000808040004e0090000080500066
:1022bc008000e9004e0090001e0040005e0290007d
:1022cc00230020004e0190008afe0700a000200091
:1022dc000080fa00000006000c00fa0010079800bd
:1022ec00210798003207980043079800540798007c
:1022fc009e009000010f780006003700de01900070
:10230c004e019000ae0090001e007800fafd070010
:10231c001e0fe800be0090001e00900000804000e0
:10232c009e0f5000f5ff3c000080fa0000000600f4
:10233c001600fa0050079800610798007207980081
:10234c00030f9800140f9800250f9800fe009000c2
:10235c00010f78000000eb0010079800fe009000c1
:10236c00e0ff2f000088b900000078000000e800b2
:10237c002007980010002000300798000000eb00a8
:10238c00400798004f0037001e0890000000e00046
:10239c0018003a001e009000000040008000e80089
:1023ac000e08900000814000ee0090001e0090008e
:1023bc00808050005e0090001e004000ae0990002e
:1023cc00cdfd07001e007800000040008000e800f2
:1023dc000e089000008140006e0090009e0050009e
:1023ec00de0190001e00900000804100ae099000bc
:1023fc00c1fd07001e089000e10f500018003a00c4
:10240c001e009000000040008000e8000e089000c4
:10241c0000814000ee0090001e0090008080500073
:10242c005e0090001e005000ae099000b2fd070047
:10243c001e007800000040008000e8000e089000ac
:10244c00008140006e0090009e005000de01900064
:10245c001e00900000805100ae099000a6fd070000
:10246c001e0090000000e80010079800ce009000bd
:10247c003e00900000804000400798003e00900015
:10248c000080e800300798004e00900000004000eb
:10249c00800078002e009000008040000000e000da
:1024ac00080034001e0fe900ce0090002e009000b2
:1024bc0000804000400798002e0090000080e8004b
:1024cc00200798001e0090009e007800808f50001e
:1024dc00adff3d000080fa00000006000e00fa007f
:1024ec0010079800210798003207980043079800be
:1024fc0054079800650798005e0090000000e0000b
:10250c0002003d00b00020003e003700ae009000fd
:10251c00010f78000e003700de009000e0ff2f0066
:10252c000088b900800078003e0090008080400058
:10253c001e0190005e00900000004100ee01900032
:10254c00010178009e0078008cfd07001e0fe8004a
:10255c00ce0090002e009000008040009e0f500096
:10256c00edff3c00de009000e0ff2f000088b9007a
:10257c00800078004e009000008040000001e900cf
:10258c00ae0090005e009000808040009e019000a4
:10259c003e009000808141005e0090000080510060
:1025ac000000e900ee0290000002eb0082017800ce
:1025bc005e0190005eff0700de009000e0ff2f0040
:1025cc000088b900800078004e0090000080400028
:1025dc000001e900ae0090005e0090008080400099
:1025ec009e0190005e00900000804100ee02900081
:1025fc0014002000820178005e0190004cff07005f
:10260c00a00020000080fa00000006000800fa007c
:10261c00000f7800110798002207980033079800e4
:10262c002e0090000000e00002003d00b0002000f1
:10263c001a0037002e009000000040008000e800d7
:10264c001e0190002e00900000005100be01900071
:10265c0001017800800078001e00780026fd07003c
:10266c00be0290000002eb008001eb002e019000f6
:10267c009e0090001e0078002dff0700be02900007
:10268c00140020008001eb002e0190009e009000b1
:10269c001e00780026ff0700a00020000080fa0032
:1026ac00000006001600fa00500798006107980019
:1026bc00624f9800030f9800140f98006e4890001a
:1026cc00ff4f500004003600ee489000e0c7b30006
:1026dc0080cf500002003600b00020005a003700b6
:1026ec00ee48900000ceb30000c04000604f980050
:1026fc005e009000000f78004b00370010c0b30054
:10270c00004f9800ee009000110798003d00370034
:10271c000000eb00300798002f0037000000eb00a2
:10272c0020079800250037006e4890000080fb00c1
:10273c00200f9800de0090001e811000015c8000cc
:10274c0081017800110009000301d8008000fd0010
:10275c0001017800ae0990006518b90000007800fe
:10276c0002004000a1b02800e14078000e48900023
:10277c0000c060000004e000030032000e0890006e
:10278c0000407800020037001e08900000407800de
:10279c001e019000ae009000810041003e019000af
:1027ac009e01410000417800030078006803070097
:1027bc002e0090000000e80020079800005c8000cc
:1027cc00ae009000808f5000d7ff35003e00900087
:1027dc000000e80030079800005c8000be0090000c
:1027ec00808f5000cdff35000e4890000040400017
:1027fc00004f9800005c80009e009000008040001c
:10280c0010079800005c8000c300dd006e00900093
:10281c00808040001e009000808f5000bcff3c0068
:10282c00005c80001e0f4000005c80006500b90059
:10283c00800078005e009000008040009e0f5000e9
:10284c00aeff3c00a00020000080fa000000060053
:10285c000c00fa0010079800210798003207980026
:10286c0043079800540798000000eb00000f780015
:10287c005b0037003e009000104078005e02900034
:10288c00ce01900000417800ae0090001e00900038
:10289c0084ff0700000f78001e007800ea0f50003c
:1028ac00020032001e0078005200370082cbbf00bd
:1028bc000004e00036003200015c8000b0ff2f0005
:1028cc000088b900800078001e0090000080500045
:1028dc000208200000014100005c80006500b90086
:1028ec0000007800800f510014003d00005c800057
:1028fc004300dd00ae0090000080400020079800ef
:10290c00010220002e00900080805000005c8000ae
:10291c004300dd00808f500002003d00c00020000d
:10292c00340037000000eb00100798003e009000c8
:10293c000000e8003007980029003700005c800098
:10294c006500b900000078009e00900000804000f7
:10295c0010079800005c80006700b9000000780048
:10296c00de01900000017800ae0090001e00900087
:10297c0061fc07003e0090000000e8003007980062
:10298c001e0090000000e8001007980014003700ab
:10299c00005c80006500b900000078009e0090008b
:1029ac000080400010079800005c80006700b900b0
:1029bc0000007800de01900000017800ae0090006d
:1029cc001e0090004cfc07003e0090000000e80048
:1029dc00300798001e0090000000e80010079800d7
:1029ec003e009000104078000004e000a1ff3a0087
:1029fc00a00020000080fa00000006000200fa008f
:102a0c00000f78001e0078000000e00002003a0081
:102a1c00b0002000030037009e007800015c8800a5
:102a2c00a00020000080fa00000006000200fa005e
:102a3c00004f78001e4078000004e00003003200d4
:102a4c0010c0b30082ebb70001003700826bef00bf
:102a5c000080fa00000006000e00fa002007980023
:102a6c0031079800420798005307980064079800b4
:102a7c000000eb00100798001b0037000000eb0073
:102a8c00000f7800110037009e0090004e0090005f
:102a9c000088b900000078001e00400000004000d3
:102aac00ee0090000080400010007800004178009b
:102abc009e0090003e009000808040002e00900010
:102acc001e004000a20207001e0fe8004e009000fe
:102adc009e007800808f5000ebff35001e009000a8
:102aec000000e800100798009e0090005e00900027
:102afc00808f5000e1ff35000080fa0000000600d6
:102b0c000200fa00000f78001e0078000000e000c0
:102b1c0002003d001e00ea00010037001e00780094
:102b2c000080fa00000006004a00fa00889fbe00f0
:102b3c006000b80020079800310798000000eb00f7
:102b4c00500798006000b800400f9800510f980093
:102b5c006000b800000f9800110f98000000eb0007
:102b6c00200f98000000eb00300f9800a822ef0017
:102b7c000080eb0030168800ca22ef00cc22ef0058
:102b8c00d022ef00d222ef00d622ef00de22ef009f
:102b9c00e222ef0096040700410307007b030700c5
:102bac001000200095ff0700ce0207000000eb008c
:102bbc00400798000b0037004e00900045040700ba
:102bcc00800078004e00900000004000000047009c
:102bdc004003b000010878004e0090000000e800af
:102bec00400798004e009000ea0f5000f2ff3400ae
:102bfc000000eb00500798000000eb004007980025
:102c0c000f0037005e0090000000400000004700fd
:102c1c00a01890004e0090000000400000004700fb
:102c2c0020189000808f500002003100ce009000e0
:102c3c00510798004e0090000000e80040079800f3
:102c4c004e009000e70f5000eeff34005e00900045
:102c5c000000e00003003a007000200060079800bc
:102c6c00030037005e0090000000e9006007980048
:102c7c005e009000e70f500003003a000000eb00ec
:102c8c0070079800030037005e0090000000e80019
:102c9c00700798006e009000000040000000470094
:102cac00a01890007e00900000004000000047003b
:102cbc0020189000808f5000130031007e0090008f
:102ccc000000400000004700a01890001107980079
:102cdc005e0090000000400000004700a01890002b
:102cec00010f7800de009000d00220000088b900af
:102cfc0000007800cf80de0068f6070020079800ff
:102d0c0031079800120037006e0090000000400060
:102d1c0000004700a0189000010f78005e009000a2
:102d2c000000400000004700a01890001107980018
:102d3c00ee009000d00220000088b900000078005e
:102d4c00cf80de0055f60700200798003107980069
:102d5c001e0078008000eb0053f607000004be0054
:102d6c001e0090008000eb004ff607000001be0033
:102d7c000800be00e4f5070002002000431b2400fd
:102d8c009ef607002e019000be01900081f5070011
:102d9c00600f9800710f9800ae2090003e209000bc
:102dac00808040004e209000008040008000eb00ae
:102dbc003df607000200200003042400d2f50700b2
:102dcc00400f9800510f980018c0b3000200280063
:102ddc00235224004e089000de0890000cf60700e9
:102dec000000e00001003c000044eb000804e0009f
:102dfc00060032006000b800000f9800110f980018
:102e0c000000eb00300f98002800370018c0b3000a
:102e1c0002002000a34f24004e089000de08900012
:102e2c00fbf507000000e00001003c000044eb0053
:102e3c000804e0001700320002002000a34f240019
:102e4c004e089000de08900051f50700400f9800e6
:102e5c00510f98004e099000de09900000002000f0
:102e6c00614124004af50700020020006341240060
:102e7c00a5f5070002002000031024005ff60700f0
:102e8c00000f9800110f98000000eb00300f980015
:102e9c00060037000000200001102400000f9800ed
:102eac00110f980010002000300f98000002200035
:102ebc000e00400033002000000178006e089000e6
:102ecc00fe0890002603070018c0b300d2f72f00ad
:102edc00732c24006e089000fe089000ccf50700bf
:102eec000000e00001003c000044eb000804e0009e
:102efc00030032000000eb00200f980002003700a6
:102f0c00b0002000200f980020002000bbfe07001e
:102f1c002e08900078004000010220008e804000b6
:102f2c000002eb0013002000010178008000eb0090
:102f3c0047fe070014002000430020004200200040
:102f4c008000eb0070062000e3fc0700000220006c
:102f5c000e00400023002000000178000e089000b5
:102f6c009e089000fe02070018c0b300d2f72f0095
:102f7c00732c24000e0890009e089000a4f5070006
:102f8c000000e00001003c000044eb000804e000fd
:102f9c00030032000000eb00200f980010003700f7
:102fac0018c0b30072be2f00f31124000e0890005d
:102fbc009e08900096f507000000e00001003c0020
:102fcc000044eb000804e00003003200b0002000d5
:102fdc00200f98000200370060012000200f98009d
:102fec002000200085fe07002e089000780040008d
:102ffc00010220008e8040000002eb001300200034
:10300c00010178002101200011fe070014002000ae
:10301c00430020002200200021012000c0052000d8
:10302c00adfc07001400200043002000220020000b
:10303c0021012000f0052000a7fc07003e089000ad
:10304c000000e000060032000002eb00130020003c
:10305c0082b028002101200030022000fcfd070076
:10306c00a001070049020700003e29004100200092
:08307c0083030700cdfe3700bd
:020000040000fa
:10308400840b00000402000000000000000800009f
:103094008403000002000000000000000000800023
:1030a40080c0c000e0e0e000e0f0f000f0f0f000ec
:1030b400f0f0f000f0f0e000f8fcfe00ffff3f004d
:1030c4000f070300030101000100000000000000dd
:1030d40000000000010f3f007fffff00fff8e00049
:1030e400c08080000000000000000000000000001c
:1030f40000000000000000000001030003070700b7
:103104000f0f0f000f1f1e001e1e1e001e1e1e008e
:103114001e1f70007070700070f0f000f0f0f0008e
:10312400f01000000000000000ffff00ffffff00a0
:10313400030000000000000000ffff00ffffff008d
:103144000000000000000000101f1f001f1f1f00d0
:103154000000000000808000c0c0e000e0e0f0005b
:10316400707070007070700070f0e000e0e0c000fb
:103174007c7e7f007f7f7f0007010000000000004d
:1031840000000000000000000001c300ff00000078
:10319400000000000000000000808000c0c0e000cb
:1031a400f0f0f800fcfe7f003f3f3c003c3c3e005a
:1031b4003e3e3f003f3f3f003f3f3f003b3b390027
:1031c40039383800383838000000000080c0e0008a
:1031d400e0f0f000707838003838380038383800bb
:1031e4007870f000f0e00000000203000303030025
:1031f40003010000008080008080c000c0c0e000a7
:10320400e0f0ff00fff0f800f8f8f800f80800001c
:103214000000000003030300030303000707070083
:103224000f9ffe00000307000f0f1f001f1e3e002c
:103234003c3c3c003c3c3c003c3c3e001e1e1f0011
:103244001f0f00000000000000000000000000004c
:103254000080c000e0f0f800f8f8f800f8f8180072
:103264000800000080c0e000f0f0f8007c3e1f0081
:103274000f0703000100ff00ffffff00ff00000035
:103284000e0f0f000f0f0f000f0e0e000e0e0e008c
:103294000e0e0e000effff00ffffff000e0e0000db
:1032a400000000000000000000000000000000001a
:1032b400000008000f0f0f000f0f08000000f800b7
:1032c400f8f8f800f8f8380038383800383838009a
:1032d4003838380038383800383800007f7f7f00ad
:1032e4007f7f7f0038383c001c1c1c001c1c1c0009
:1032f4001c1c3c0038387800f0f0f000f0f0f000ce
:103304008000000000000000000000000000000039
:103314000000000000000100030707000f0f0f006a
:103324000e1e1c001c1c1c001c1c1c001c0e0e0071
:103334000f0f00000000000000000000000000006b
:103344008080c000c0e0e000f0f0700078783000c9
:1033540030008000e0f0f800fcfcfe00ffff770086
:103364007f3b3b0039393800383878007070f00002
:103374003fffff00ffffff00c381000000000000cb
:103384000000000000000000000000000000000039
:1033940000010300030707000f0f0e001e1c1c0092
:1033a4001c1c1c001c1c1c001e0e0e000f383800b8
:1033b4003838380038383800383838003838380069
:1033c40038383800b8f8f800f8f8000000000000b9
:1033d400000000000000000080c0e000f0f8fe00e3
:1033e4007f3f1f000f030100000000000080c000a9
:1033f400f0f8fc00fe7f3f000f070300010000000f
:103404000000000000000000020707000f0f070083
:1034140001000000000000000000000000000000a7
:10342400000000000000000080c0c000e0e0e000f8
:10343400f0707000707070007070f000e0e0e000f8
:10344400c0000000000f9f00bfffff00f9f0f00074
:10345400e0e0e000e0e0e000e0f0f000f9ffff0071
:10346400f8fcfe00ffff87000303010001000000d9
:103474000000000000000000000101000303000040
:103484000103070007070f000e0e1e001c1c1c0082
:103494001c1c1c001c1c1c001e0e0e000f00000037
:1034a40080c0c000e0e0f000707078003838380068
:1034b400383838003838780070f0f0007cffff00ae
:1034c400ffffc30001000000000000000000000036
:1034d4000000000000000000008000000101030063
:1034e40007070f000f0e0e001e1c1c001c9c9c00e6
:1034f400dcdcfe00eefeff007f00000000000000a8
:1035040000040c000c1e1e000e0f0f000707030022
:1035140003010100000000000000000000000000a2
:10352400000000000002070007070200081c1c003e
:103534001c0817000c16170017161700161717008b
:103544000500010000010000880d000002000000d9
:0835540000000000000000006f
:020000040000fa
:10355c000600fa00000f7800110798004247980007
:10356c001e0078000000e0000a003500f007200083
:10357c009e007800808f500006003c001e009000da
:10358c000000e000030035001e009000ff0f50000b
:10359c000200340020002000500037004e40900004
:1035ac000080fb00e10f500005003200e20f5000dc
:1035bc00320032000000e0001800320046003700f4
:1035cc001e0090000000e00001003d00670040007c
:1035dc004380de00c700dd001e81400081b8200062
:1035ec008100410091407800014178009e009000dc
:1035fc00e7806000130020008118dd008140780016
:10360c00814071004700dd001e01400080b82000a1
:10361c0000004100014878002f0037001e00900088
:10362c000000e00001003d00670040004380de0028
:10363c00c700dd001e81400081b8200081004100e0
:10364c0091407800014178009e009000e780600076
:10365c00130020008118dd008140780081c0ea0051
:10366c00814061004700dd001e01400080b8200051
:10367c000000410001487800170037001e00900040
:10368c000000e00001003d00670040004380de00c8
:10369c00c700dd001e81400081b820008100410080
:1036ac0091407800014178009e009000e780600016
:1036bc00130020008118dd008140780081406900f2
:1036cc004700dd001e01400080b8200000004100d2
:1036dc000148780000000000100020000080fa0073
:1036ec00000006000400fa008000eb000000eb0074
:1036fc002e000700c401070080072000cb01070043
:10370c0000042000c90107000000eb00100798001e
:10371c00130037000000eb00000f780009003700a1
:10372c001e0090004700dd009e00400080b8200085
:10373c0000804000104078000080fb00bb010700b7
:10374c001e0fe800f00720009e007800808f5000cc
:10375c00f3ff34001e0090000000e80010079800f2
:10376c001e009000e30f5000eaff3400bb0107007d
:10377c000080fa00000006000600fa00004f7800f6
:10378c0011079800220798002e009000c700dd005a
:10379c001e0090008080400080b820000080400017
:1037ac001e4878000080fa00000006000400fa00b1
:1037bc00000f7800110798009e009000f007200081
:1037cc00808f500009003c001e0090000000e000bb
:1037dc00060035001e007800e30f500003003c008b
:1037ec001e0078000000e00002003d0020002000d8
:1037fc00110037001e007800205c88001e0090002d
:10380c00305c8800100220000d0007001e009000a4
:10381c000b000700f0072000090007002002200021
:10382c00070007001e00780005000700300020008c
:10383c0003000700100020000080fa0000000600c2
:10384c000200fa00000f78006f01070080072000cb
:10385c007601070000082000740107001e007800a4
:10386c00720107007d0107000080fa0000000600cd
:10387c000200fa00000f78006301070080072000a7
:10388c006a01070000042000680107001e00780090
:10389c0066010700710107000080fa0000000600b5
:1038ac000000fa00e00a2000e5ff070000022000fb
:1038bc00e3ff07000000eb00e1ff0700000b200016
:1038cc00dfff0700800c2000ddff07000000eb008d
:1038dc00dbff070000012000d9ff070000042000d7
:1038ec00d7ff070010082000d5ff0700f0082000c4
:1038fc00d3ff0700100a2000d1ff0700600a200048
:10390c00cfff0700800a2000cdff0700f001200048
:10391c00cbff0700400a2000c9ff0700300d200034
:10392c00c7ff07000000eb00c5ff0700500d20008b
:10393c00c3ff0700000f2000c1ff0700900d2000ff
:10394c00bfff070020022000bdff0700a00d2000d4
:10395c00bbff070020002000b9ff0700b00d2000be
:10396c00b7ff070000042000b5ff0700d0082000b7
:10397c00b3ff070040012000b1ff0700f00a200050
:10398c00afff07000080fa00000006000400fa00f8
:10399c000000eb0010079800120037000000eb004d
:1039ac00000f7800080037001e0090004700dd0073
:1039bc009e00400080b82000008040008040eb005a
:1039cc00014878001e0fe800f00720009e007800e8
:1039dc00808f5000f4ff34001e0090000000e800bf
:1039ec00100798001e009000e30f5000ebff34000e
:1039fc000080fa00000006000a00fa003007980068
:103a0c00410798000000eb00000f78004e0090007a
:103a1c000000e90010079800180037001e0078001d
:103a2c00be00900000804000104078000000fb00b9
:103a3c00200798001e007800be0090000080400017
:103a4c009e0090003e019000810041009140780062
:103a5c00014878001e009000be00900000804000dd
:103a6c00ae00900081407800014878001e0fe800fd
:103a7c001e0090000000e900100798001e00900046
:103a8c009e007800808f5000e4ff35000080fa0023
:103a9c00000006000800fa001007980021079800a3
:103aac00320798000000eb00000f7800130037007d
:103abc001e007800ae009000808140001e01900036
:103acc00d0cc2c000010b8004308de006a00b9000e
:103adc000000780000005100004078000043b00066
:103aec00804978001e0fe8009e009000d0cc2c007e
:103afc000008b8004308de00100798001e00900074
:103b0c000000e000eaff3a00060037001e007800d3
:103b1c00ae0090000080400001c3b3000148780063
:103b2c001e0fe8003e0090009e007800808f500031
:103b3c00f6ff35009e0078002e009000aeff0700c7
:103b4c001e007800ae009000008040008040eb002a
:103b5c00014878001e0078000080fa000000060082
:103b6c001000fa00881f7800400798005107980051
:103b7c0062079800730798004e009000de009000da
:103b8c00a5f20700000f78001e007800cf80de0041
:103b9c00c2f207000001be004e009000de00900053
:103bac00fbf1070010079800210798001e00780011
:103bbc000001eb00ee009000b6ff07003007980004
:103bcc007e0090000000e0001d0032003e009000de
:103bdc00ee00900000804000e1c2b3000148780084
:103bec007e009000cf80de00acf207000001be002a
:103bfc00000020000112240034f307000001be0075
:103c0c001e009000ae009000fcf207001007980018
:103c1c00210798003e0090000000e800ee009000a4
:103c2c00008440001e009000ae0090007af2070065
:103c3c00000078007e0190008800780095ff070056
:103c4c004f0478000080fa00000006000800fa001b
:103c5c003007980000012000200798000000eb00be
:103c6c00000f78000000eb001007980012003700de
:103c7c00110020001e0090000008dd00800078007c
:103c8c003e009000008060000000e0000700320061
:103c9c001e009000ae009000008050000000e90073
:103cac00110020000008dd001e0f70001e009000a7
:103cbc000000e800100798009e0090002e00900075
:103ccc00808f5000eaff39001e0078000080fa0057
:103cdc00000006000400fa0010079800a1e2a900f9
:103cec008560a900c1048000f0ff280000806000fe
:103cfc00c00488008d60a900a682a9001e00900057
:103d0c00004078006f4060000080fb006f00600096
:103d1c003215800001ff2f0081006100010070004e
:103d2c0030158800aa22ef0021158000f00f2e001c
:103d3c000080600020158800a4e2a90021158000f5
:103d4c0000fc2f0000806000f000b30020158800fc
:103d5c0011158000f0ff2100008060001015880014
:103d6c00a342a9001115800030fc2f0000806000d8
:103d7c0010158800a222a900a202a900a1a2a800e5
:103d8c0001158000f0cf2f00008060000015880026
:103d9c0001158000f0f12f000080600000158800f4
:103dac00a042a900a1e2a8000065240001002000a7
:103dbc0033000700a022a80000f22b0021002000f5
:103dcc002f000700a022a9000000000000158000b1
:103ddc00610060000000e000fcff32000114800074
:103dec00010f78001e0078000080fa000000060029
:103dfc000000fa00200320002010880007e2a80031
:103e0c000080fa00000006000000fa000602a8007c
:103e1c000000000030108000610060000000e00035
:103e2c00fcff3a000080fa00000006000200fa00d5
:103e3c00000f78009e007800111088000000000030
:103e4c004110800000002400008060000000e000b1
:103e5c00fbff3a000080fa00000006000000fa00a8
:103e6c000642a800000000003010800064006000d2
:103e7c000000e000fcff3a000080fa0000000600a1
:020000040000fa
:103e8c00f03fb1000180b10006003500ee030900df
:103e9c0000000000403fb1000180b100fbff3d007d
:103eac001000b000203fb000020035000080090077
:083ebc000000000000000600f8
:020000040000fa
:0200000401f009
:04000000eabf000053
:020000040000fa
:0200000401f009
:04000400ff7f00007a
:020000040000fa
:0200000401f009
:040008007fff000076
:020000040000fa
:0200000401f009
:04001400ffff0000ea
:020000040000fa
:0200000401f009
:04001800ffff0000e6
:00000001FF
