:020000040000fa
:080000000001040000000000f3
:020000040000fa
:04000800c80100002b
:020000040000fa
:04000c00c801000027
:020000040000fa
:04001000c801000023
:020000040000fa
:04001400c80100001f
:020000040000fa
:04001800c80100001b
:020000040000fa
:04001c00c801000017
:020000040000fa
:04002000c801000013
:020000040000fa
:04002400c80100000f
:020000040000fa
:04002800c80100000b
:020000040000fa
:04002c00c801000007
:020000040000fa
:04003000c801000003
:020000040000fa
:04003400c8010000ff
:020000040000fa
:04003800c8010000fb
:020000040000fa
:04003c00c8010000f7
:020000040000fa
:04004000c8010000f3
:020000040000fa
:04004400c8010000ef
:020000040000fa
:04004800c8010000eb
:020000040000fa
:04004c00c8010000e7
:020000040000fa
:04005000c8010000e3
:020000040000fa
:04005400c8010000df
:020000040000fa
:04005800c8010000db
:020000040000fa
:04005c00c8010000d7
:020000040000fa
:04006000c8010000d3
:020000040000fa
:04006400c8010000cf
:020000040000fa
:04006800c8010000cb
:020000040000fa
:04006c00c8010000c7
:020000040000fa
:04007000c8010000c3
:020000040000fa
:04007400c8010000bf
:020000040000fa
:04007800c8010000bb
:020000040000fa
:04007c00c8010000b7
:020000040000fa
:04008000c8010000b3
:020000040000fa
:04008400c8010000af
:020000040000fa
:04008800c8010000ab
:020000040000fa
:04008c00c8010000a7
:020000040000fa
:04009000c8010000a3
:020000040000fa
:04009400c80100009f
:020000040000fa
:04009800c80100009b
:020000040000fa
:04009c00c801000097
:020000040000fa
:0400a000c801000093
:020000040000fa
:0400a400c80100008f
:020000040000fa
:0400a800c80100008b
:020000040000fa
:0400ac00c801000087
:020000040000fa
:0400b000c801000083
:020000040000fa
:0400b400c80100007f
:020000040000fa
:0400b800c80100007b
:020000040000fa
:0400bc00c801000077
:020000040000fa
:0400c000c801000073
:020000040000fa
:0400c400c80100006f
:020000040000fa
:0400c800c80100006b
:020000040000fa
:0400cc00c801000067
:020000040000fa
:0400d000c801000063
:020000040000fa
:0400d400c80100005f
:020000040000fa
:0400d800c80100005b
:020000040000fa
:04010800c80100002a
:020000040000fa
:04010c00c801000026
:020000040000fa
:04011000c801000022
:020000040000fa
:04011400c80100001e
:020000040000fa
:04011800c80100001a
:020000040000fa
:04011c00c801000016
:020000040000fa
:04012000c801000012
:020000040000fa
:04012400c80100000e
:020000040000fa
:04012800c80100000a
:020000040000fa
:04012c00c801000006
:020000040000fa
:04013000c801000002
:020000040000fa
:04013400c8010000fe
:020000040000fa
:04013800c8010000fa
:020000040000fa
:04013c00c8010000f6
:020000040000fa
:04014000c8010000f2
:020000040000fa
:04014400c8010000ee
:020000040000fa
:04014800c8010000ea
:020000040000fa
:04014c00c8010000e6
:020000040000fa
:04015000c8010000e2
:020000040000fa
:04015400c8010000de
:020000040000fa
:04015800c8010000da
:020000040000fa
:04015c00c8010000d6
:020000040000fa
:04016000c8010000d2
:020000040000fa
:04016400c8010000ce
:020000040000fa
:04016800c8010000ca
:020000040000fa
:04016c00c8010000c6
:020000040000fa
:04017000c8010000c2
:020000040000fa
:04017400c8010000be
:020000040000fa
:04017800c8010000ba
:020000040000fa
:04017c00c8010000b6
:020000040000fa
:04018000c8010000b2
:020000040000fa
:04018400c8010000ae
:020000040000fa
:04018800c8010000aa
:020000040000fa
:04018c00c8010000a6
:020000040000fa
:04019000c8010000a2
:020000040000fa
:04019400c80100009e
:020000040000fa
:04019800c80100009a
:020000040000fa
:04019c00c801000096
:020000040000fa
:0401a000c801000092
:020000040000fa
:0401a400c80100008e
:020000040000fa
:0401a800c80100008a
:020000040000fa
:0401ac00c801000086
:020000040000fa
:0401b000c801000082
:020000040000fa
:0401b400c80100007e
:020000040000fa
:0401b800c80100007a
:020000040000fa
:0401bc00c801000076
:020000040000fa
:0401c000c801000072
:020000040000fa
:0401c400c80100006e
:020000040000fa
:0401c800c80100006a
:020000040000fa
:0401cc00c801000066
:020000040000fa
:0401d000c801000062
:020000040000fa
:0401d400c80100005e
:020000040000fa
:0401d800c80100005a
:020000040000fa
:100200004fa020000eff20000e018800000000001b
:10021000000020000000e000020032000001200089
:1002200020028800140007005b0007000000e000c7
:1002300003003a00806c200001002000020037001b
:100240000000200001002000810f7000010032003a
:1002500014000700000020000000e000020032004f
:1002600000000200000000002c0602000000000058
:100270000040da000000fe004440a90000202000f9
:100280000000e0000300320000002000a001880010
:100290004440a800000006008a1f78008b1f7800e9
:1002a0000000060091018800800478000000eb0047
:1002b0001a003700e284440032a0b4009905ba0065
:1002c000e284440032a0b4009906ba00e2844400fb
:1002d00032a0b4000006eb00476fde00fd07b2005d
:1002e000636ce10003003a00ebff07000000eb0045
:1002f0000a003700606ce10004003a00005deb008a
:100300008b05e900fdff3e00040037006168e10055
:10031000010032000086eb000b00070019c7ba008d
:100320001905ba000e04e00003003a000a00e000dc
:10033000e0ff3a0000000600fe07b2009e018800c0
:100340008a047800f5ff3700395dba008b05e900b3
:100350000c003200295dba008b05e900080032006c
:100360000c00e00003003a00e284440032a0b40034
:10037000f5ff370019ddba008b05e900faff3a00f6
:100380008904e800e184440032a0b40000000600c3
:0c0390000040da000000fe000000050044
:020000040000fa
:10039c000000000000100000183800003030000091
:1003ac00306000006060000060700000f0e0000051
:1003bc00c0c00000c0c00000808000008080000031
:1003cc008080000000000000000000000000000021
:1003dc000000000000000000000000000000000011
:1003ec000000000000000000000000000000000001
:1003fc0080800000000000000000000000000000f1
:10040c0000000000000000000000000000000000e0
:10041c0000000000000000000000000000000000d0
:10042c0000000000000000000000000000000000c0
:10043c0000000000000000000000000000000000b0
:10044c0000000000000000000000000000000000a0
:10045c000000000000000000000000000000000090
:10046c000000000000000000000000000000000080
:10047c000000000000000000000000000000000070
:10048c000000000000000000000000000000000060
:10049c000000000000000000000000000000000050
:1004ac00000000000000000000000000013f000000
:1004bc00ffe000000000000001010000010100004d
:1004cc00c1e1000071f00000f8d80000d8dc000099
:1004dc00dcf80000f0e0000040800000c0e000000c
:1004ec006060000060700000200000000000000050
:1004fc00011f0000fff00000800000000000000061
:10050c00000000000000000080800000800000005f
:10051c0000980000f89000000000000040e000008f
:10052c00c0000000000000000000000080800000ff
:10053c00800000000000000000000000000000002f
:10054c000000000080c00000c0f00000e0c000000f
:10055c00800000000000000000000000000000000f
:10056c00000000000000000000000000000000007f
:10057c00000000000000000000000000000000006f
:10058c00000000000000000000000000000000005f
:10059c00000000000000000000000000000000004f
:1005ac00000000000000000000000000000000003f
:1005bc000f7f000078000000000000000000000029
:1005cc00030f00003e78000060c00000c0c00000b7
:1005dc008080000080e00000e30300000373000053
:1005ec00f6c60000c68600008c9c0000f8f40000e3
:1005fc0006060000060700001f7e0000f7c300007f
:10060c0003030000030300000301000001010000cc
:10061c0000000000010f0000fff800008001000046
:10062c00031f00007ef00000fcff0000070100002b
:10063c00030700001e7c0000f0c00000e0fc00007e
:10064c003e7700006361000060600000607f000086
:10065c003f0700000e3c0000f8e000000000000026
:10066c00000000000000000000000000000000007e
:10067c00000000000000000000000000000000006e
:10068c00000000000000000000000000000000005e
:10069c00000000000000000000000000000000004e
:1006ac00000000000000000000000000000000003e
:1006bc00000000000000000000000000000000002e
:1006cc00000000000000000000000000000100001d
:1006dc000101000001010000010000000000000009
:1006ec0000000000000100000101000001000000fa
:1006fc0000000000000000000000000003030000e8
:10070c0003000000000000000000000000000000da
:10071c000000000000000000030700000f0c0000a8
:10072c0000000000000000000000000000000000bd
:10073c0000000000000000000001000001010000aa
:10074c00040600000e0c00000c0c00000c0c000049
:10075c000c0e00000606000007030000000000005d
:10076c00000000000000000000000000000000007d
:10077c00000000000000000000000000000000006d
:10078c00000000000000000000000000000000005d
:020000040000fa
:10079c000600fa00000f78001107980042479800f5
:1007ac001e0078000000e0000a003500f007200071
:1007bc009e007800808f500006003c001e009000c8
:1007cc000000e000030035001e009000ff0f5000f9
:1007dc000200340020002000500037004e409000f2
:1007ec000080fb00e10f500005003200e20f5000ca
:1007fc00320032000000e0001800320046003700e2
:10080c001e0090000000e00001003d006700400069
:10081c004380de00c700dd001e81400041802000c7
:10082c008100410091407800014178009e009000c9
:10083c00e7806000130020008118dd008140780003
:10084c00814071004700dd001e0140004080200007
:10085c0000004100014878002f0037001e00900076
:10086c000000e00001003d00670040004380de0016
:10087c00c700dd001e814000418020008100410046
:10088c0091407800014178009e009000e780600064
:10089c00130020008118dd008140780081c0ea003f
:1008ac00814061004700dd001e01400040802000b7
:1008bc000000410001487800170037001e0090002e
:1008cc000000e00001003d00670040004380de00b6
:1008dc00c700dd001e8140004180200081004100e6
:1008ec0091407800014178009e009000e780600004
:1008fc00130020008118dd008140780081406900e0
:10090c004700dd001e014000408020000000410037
:10091c000148780000000000100020000080fa0060
:10092c00000006000400fa008000eb000000eb0061
:10093c002e000700f500070080072000fc000700d0
:10094c00000c2000fa0007000000eb0010079800d4
:10095c00130037000000eb00000f7800090037008f
:10096c001e0090004700dd009e00400040802000eb
:10097c0000804000104078000080fb00ec00070075
:10098c001e0fe800f00720009e007800808f5000ba
:10099c00f3ff34001e0090000000e80010079800e0
:1009ac001e009000e30f5000eaff3400ec0007003b
:1009bc000080fa00000006000600fa00004f7800e4
:1009cc0011079800220798002e009000c700dd0048
:1009dc001e0090008080400040802000008040007d
:1009ec001e4878000080fa00000006000400fa009f
:1009fc00000f7800110798009e009000f00720006f
:100a0c00808f500009003c001e0090000000e000a8
:100a1c00060035001e007800e30f500003003c0078
:100a2c001e0078000000e00002003d0020002000c5
:100a3c00110037001e007800004088001e00900056
:100a4c0010408800100220000d0007001e009000ce
:100a5c000b000700f007200009000700200220000f
:100a6c00070007001e00780005000700300020007a
:100a7c0003000700100020000080fa0000000600b0
:100a8c000200fa00000f7800a00007008007200089
:100a9c00a700070000082000a50007001e00780032
:100aac00a3000700ae0007000080fa00000006005b
:100abc000200fa00000f7800940007008007200065
:100acc009b00070000042000990007001e0078001e
:100adc0097000700a20007000080fa000000060043
:100aec000000fa00e00a2000e5ff070000022000e9
:100afc00e3ff07000000eb00e1ff0700000b200004
:100b0c00dfff0700800c2000ddff07000000eb007a
:100b1c00dbff070000012000d9ff070000042000c4
:100b2c00d7ff070010082000d5ff0700f0082000b1
:100b3c00d3ff0700100a2000d1ff0700600a200035
:100b4c00cfff0700800a2000cdff0700f001200036
:100b5c00cbff0700400a2000c9ff0700300d200022
:100b6c00c7ff07000000eb00c5ff0700500d200079
:100b7c00c3ff0700000f2000c1ff0700900d2000ed
:100b8c00bfff070020022000bdff0700a00d2000c2
:100b9c00bbff070020002000b9ff0700b00d2000ac
:100bac00b7ff070000042000b5ff0700d0082000a5
:100bbc00b3ff070040012000b1ff0700f00a20003e
:100bcc00afff07000080fa00000006000400fa00e6
:100bdc008000eb000000eb0084ff07000000eb003e
:100bec0010079800140037000000eb00000f78008d
:100bfc000a0037000000eb00adff07001e0090005c
:100c0c004700dd009e004000408020000080400036
:100c1c008040eb00014878001e0fe800f007200030
:100c2c009e007800808f5000f2ff34001e00900070
:100c3c000000e800100798001e009000e30f500021
:100c4c00e9ff34000080fa00000006000400fa00fe
:100c5c00a822ef000080eb0030168800ca22ef00bb
:100c6c00cc22ef00d022ef00d222ef00d622ef00f0
:100c7c00de22ef00e222ef001e00070098ff0700c3
:100c8c00d2ff07000000eb0010079800140037009b
:100c9c000000eb00000f78000a0037009e0078007f
:100cac001e0090000088b90000007800e11c2800ac
:100cbc00614078001e0190009e0078003eff070006
:100ccc001e0fe800f00720009e007800808f500077
:100cdc00f2ff34001e0090000000e800100798009e
:100cec001e009000e30f5000e9ff34000dff0700d9
:100cfc00ffff37000000fa000011200020108800d0
:100d0c0007e2a8000080fa00000006000000fa00cc
:100d1c000602a80000000000301080006100600096
:100d2c000000e000fcff3a000080fa000000060022
:100d3c000200fa00000f78009e0078001110880065
:100d4c0000000000411080000000240000806000c2
:100d5c000000e000fbff3a000080fa0000000600f3
:100d6c000000fa000642a8000000000030108000cd
:100d7c00640060000000e000fcff3a000080fa0014
:040d8c00000006005d
:020000040000fa
:100d90000008000004020000000000000000000045
:020000040000fa
:0200000401f009
:04000000e0b9000063
:020000040000fa
:0200000401f009
:04000400ffff0000fa
:020000040000fa
:0200000401f009
:04000800ffff0000f6
:020000040000fa
:0200000401f009
:04001400ffff0000ea
:020000040000fa
:0200000401f009
:04001800ffff0000e6
:00000001FF
