:020000040000fa
:080000000001040000000000f3
:020000040000fa
:04000800c80100002b
:020000040000fa
:04000c00c801000027
:020000040000fa
:04001000c801000023
:020000040000fa
:04001400c80100001f
:020000040000fa
:04001800c80100001b
:020000040000fa
:04001c00c801000017
:020000040000fa
:04002000c801000013
:020000040000fa
:04002400c80100000f
:020000040000fa
:04002800c80100000b
:020000040000fa
:04002c00c801000007
:020000040000fa
:04003000c801000003
:020000040000fa
:04003400c8010000ff
:020000040000fa
:04003800c8010000fb
:020000040000fa
:04003c00c8010000f7
:020000040000fa
:04004000c8010000f3
:020000040000fa
:04004400c8010000ef
:020000040000fa
:04004800c8010000eb
:020000040000fa
:04004c00c8010000e7
:020000040000fa
:04005000c8010000e3
:020000040000fa
:04005400c8010000df
:020000040000fa
:04005800c8010000db
:020000040000fa
:04005c00c8010000d7
:020000040000fa
:04006000c8010000d3
:020000040000fa
:04006400c8010000cf
:020000040000fa
:04006800c8010000cb
:020000040000fa
:04006c00c8010000c7
:020000040000fa
:04007000c8010000c3
:020000040000fa
:04007400c8010000bf
:020000040000fa
:04007800c8010000bb
:020000040000fa
:04007c00c8010000b7
:020000040000fa
:04008000c8010000b3
:020000040000fa
:04008400c8010000af
:020000040000fa
:04008800c8010000ab
:020000040000fa
:04008c00c8010000a7
:020000040000fa
:04009000c8010000a3
:020000040000fa
:04009400c80100009f
:020000040000fa
:04009800c80100009b
:020000040000fa
:04009c00c801000097
:020000040000fa
:0400a000c801000093
:020000040000fa
:0400a400c80100008f
:020000040000fa
:0400a800c80100008b
:020000040000fa
:0400ac00c801000087
:020000040000fa
:0400b000c801000083
:020000040000fa
:0400b400c80100007f
:020000040000fa
:0400b800c80100007b
:020000040000fa
:0400bc00c801000077
:020000040000fa
:0400c000c801000073
:020000040000fa
:0400c400c80100006f
:020000040000fa
:0400c800c80100006b
:020000040000fa
:0400cc00c801000067
:020000040000fa
:0400d000c801000063
:020000040000fa
:0400d400c80100005f
:020000040000fa
:0400d800c80100005b
:020000040000fa
:04010800c80100002a
:020000040000fa
:04010c00c801000026
:020000040000fa
:04011000c801000022
:020000040000fa
:04011400c80100001e
:020000040000fa
:04011800c80100001a
:020000040000fa
:04011c00c801000016
:020000040000fa
:04012000c801000012
:020000040000fa
:04012400c80100000e
:020000040000fa
:04012800c80100000a
:020000040000fa
:04012c00c801000006
:020000040000fa
:04013000c801000002
:020000040000fa
:04013400c8010000fe
:020000040000fa
:04013800c8010000fa
:020000040000fa
:04013c00c8010000f6
:020000040000fa
:04014000c8010000f2
:020000040000fa
:04014400c8010000ee
:020000040000fa
:04014800c8010000ea
:020000040000fa
:04014c00c8010000e6
:020000040000fa
:04015000c8010000e2
:020000040000fa
:04015400c8010000de
:020000040000fa
:04015800c8010000da
:020000040000fa
:04015c00c8010000d6
:020000040000fa
:04016000c8010000d2
:020000040000fa
:04016400c8010000ce
:020000040000fa
:04016800c8010000ca
:020000040000fa
:04016c00c8010000c6
:020000040000fa
:04017000c8010000c2
:020000040000fa
:04017400c8010000be
:020000040000fa
:04017800c8010000ba
:020000040000fa
:04017c00c8010000b6
:020000040000fa
:04018000c8010000b2
:020000040000fa
:04018400c8010000ae
:020000040000fa
:04018800c8010000aa
:020000040000fa
:04018c00c8010000a6
:020000040000fa
:04019000c8010000a2
:020000040000fa
:04019400c80100009e
:020000040000fa
:04019800c80100009a
:020000040000fa
:04019c00c801000096
:020000040000fa
:0401a000c801000092
:020000040000fa
:0401a400c80100008e
:020000040000fa
:0401a800c80100008a
:020000040000fa
:0401ac00c801000086
:020000040000fa
:0401b000c801000082
:020000040000fa
:0401b400c80100007e
:020000040000fa
:0401b800c80100007a
:020000040000fa
:0401bc00c801000076
:020000040000fa
:0401c000c801000072
:020000040000fa
:0401c400c80100006e
:020000040000fa
:0401c800c80100006a
:020000040000fa
:0401cc00c801000066
:020000040000fa
:0401d000c801000062
:020000040000fa
:0401d400c80100005e
:020000040000fa
:0401d800c80100005a
:020000040000fa
:100200008fa020000eff20000e01880000000000db
:10021000000020000000e000020032000001200089
:1002200020028800140007005b0007000000e000c7
:1002300003003a00201621000100200002003700d0
:100240000000200001002000810f7000010032003a
:1002500014000700000020000000e000020032004f
:100260000000020000000000361102000000000043
:100270000040da000000fe004440a900e0402000f9
:100280000000e0000300320000002000a001880010
:100290004440a800000006008a1f78008b1f7800e9
:1002a0000000060091018800800478000000eb0047
:1002b0001a003700e284440032a0b4009905ba0065
:1002c000e284440032a0b4009906ba00e2844400fb
:1002d00032a0b4000006eb00476fde00fd07b2005d
:1002e000636ce10003003a00ebff07000000eb0045
:1002f0000a003700606ce10004003a00005deb008a
:100300008b05e900fdff3e00040037006168e10055
:10031000010032000086eb000b00070019c7ba008d
:100320001905ba000e04e00003003a000a00e000dc
:10033000e0ff3a0000000600fe07b2009e018800c0
:100340008a047800f5ff3700395dba008b05e900b3
:100350000c003200295dba008b05e900080032006c
:100360000c00e00003003a00e284440032a0b40034
:10037000f5ff370019ddba008b05e900faff3a00f6
:100380008904e800e184440032a0b40000000600c3
:0c0390000040da000000fe000000050044
:020000040000fa
:10039c000000000000000000000000000000000051
:1003ac000000000000000000000000000000000041
:1003bc0000c00000e0e00000e0e00000e0e0000031
:1003cc00e0e00000e0e00000e0e00000e0e0000021
:1003dc00e0e00000e0e00000e0e00000c000000011
:1003ec000000000000c00000e0e00000e0e00000c1
:1003fc00e0e00000e0e00000e0e00000e0e00000f1
:10040c00e0e00000e0e00000e0e00000c0000000e0
:10041c000000000000c00000e0e00000e0e0000090
:10042c00e0e00000e0e00000e0e00000e0e00000c0
:10043c00e0e00000e0e00000e0e00000c0000000b0
:10044c000000000000c00000e0e00000e0e0000060
:10045c00e0e00000e0e00000e0e00000e0e0000090
:10046c00e0e00000e0e00000e0e00000e0e0000080
:10047c00c0000000000000000000000000000000b0
:10048c000000000000000000000000000000000060
:10049c000000000000000000000000000000000050
:1004ac000000000000000000000000000000000040
:1004bc00000100000303000003030000030300001d
:1004cc0003ff0000ffff0000ffff0000030300001c
:1004dc0003030000030300000303000001000000fd
:1004ec000000000000ff0000ffff0000ffff000005
:1004fc00c3c30000c3c30000c3c30000c383000018
:10050c0003030000030300000303000001000000cc
:10051c000000000000ff0000ffff0000ffff0000d4
:10052c00e3e30000e3e30000e3e30000e3e30000a7
:10053c00e3e30000e3e30000e3e30000c10000009c
:10054c000000000000010000030300000303000092
:10055c000303000003ff0000ffff0000ffff00008b
:10056c000303000003030000030300000303000067
:10057c00010000000000000000000000000000006e
:10058c00000000000000000000000000000000005f
:10059c00000000000000000000000000000000004f
:1005ac00000000000000000000000000000000003f
:1005bc00000000000000000000000000000000002f
:1005cc0000ff0000ffff0000ffff00000000000024
:1005dc00000000000000000000000000000000000f
:1005ec000000000000ff0000ffff0000ffff000004
:1005fc00c7c70000c7c70000c7c70000c7c30000bb
:10060c00c0c00000c0c00000c0c0000080000000de
:10061c000000000080c10000c3c30000c3c3000081
:10062c00c3c30000c3c30000c3c30000c3c30000a6
:10063c00c3c30000ffff0000ffff0000ff0000002d
:10064c00000000000000000000000000000000009e
:10065c000000000000ff0000ffff0000ffff000093
:10066c00000000000000000000000000000000007e
:10067c00000000000000000000000000000000006e
:10068c00000000000000000000000000000000005e
:10069c00000000000000000000000000000000004e
:1006ac00000000000000000000000000000000003e
:1006bc00000000000000000000000000000000002e
:1006cc000003000007070000070300000000000003
:1006dc00000000000000000000000000000000000e
:1006ec0000000000000300000707000007070000df
:1006fc0007070000070700000707000007070000b6
:10070c0007070000070700000707000003000000b0
:10071c0000000000030700000707000007070000a7
:10072c000707000007070000070700000707000085
:10073c000707000007070000070700000300000080
:10074c00000000000000000000000000000000009d
:10075c000000000000030000070700000703000072
:10076c00000000000000000000000000000000007d
:10077c00000000000000000000000000000000006d
:10078c00000000000000000000000000000000005d
:10079c0046550000434b0000204d0000414800002e
:1007ac004552000020480000452000004749000049
:1007bc0056450000532000004d4500002054000019
:1007cc004f4f0000204d0000554300004820000012
:1007dc00574f0000524b00002044000049450000d8
:1007ec002044000049450000204400004945000019
:1007fc0000000000000000000000000000000000ed
:10080c00005f00000000000000070000000700006f
:10081c00001400007f1400007f140000242a000044
:10082c006b2a000012230000130800006462000011
:10083c003649000055320000400000000907000056
:10084c0000000000001c000022410000000000001d
:10085c00412200001c000000140800003e080000ab
:10086c0014080000083e00000808000000500000ba
:10087c003000000000080000080800000808000014
:10088c000060000060000000002000001008000064
:10089c00040200003e510000494500003e000000eb
:1008ac00427f0000400000004261000051490000fe
:1008bc0046210000414500004b3100001814000097
:1008cc00127f00001027000045450000453900004c
:1008dc003c4a000049490000300300007109000047
:1008ec0005030000364900004949000036060000a7
:1008fc0049490000291e00000036000036000000a7
:10090c000000000056360000000000000814000033
:10091c002241000000140000141400001414000004
:10092c0000410000221400000802000001510000e8
:10093c000906000032490000794100003e7e0000ab
:10094c0011110000117e00007f4900004949000090
:10095c00363e000041410000412200007f41000072
:10096c00412200001c7f0000494900004941000061
:10097c007f09000009090000013e00004141000010
:10098c00497a00007f080000080800007f00000082
:10099c00417f00004100000020400000413f00006a
:1009ac00017f000008140000224100007f4000007d
:1009bc0040400000407f0000020c0000027f00005d
:1009cc007f020000040800007f3e0000414100004f
:1009dc00413e00007f09000009090000063e0000ae
:1009ec0041510000215e00007f0900001929000020
:1009fc004646000049490000493100000101000051
:100a0c007f010000013f000040400000403f00001b
:100a1c001f200000402000001f3f00004038000055
:100a2c00403f00006314000008140000630700003e
:100a3c0008700000080700006151000049450000e3
:100a4c00437f000041410000000000000204000050
:100a5c00081000002000000000410000417f000051
:100a6c0004020000010200000440000040400000ad
:100a7c0040400000000100000204000000200000c3
:100a8c0054540000547800007f4800004444000097
:100a9c003838000044440000442000003844000072
:100aac00444800007f3800005454000054180000e3
:100abc00087e000009010000020c000052520000e8
:100acc00523e00007f080000040400007800000083
:100adc00447d00004000000020400000443d000028
:100aec00007f0000102800004400000000410000be
:100afc007f400000007c0000040800000478000027
:100b0c007c08000004040000783800004444000015
:100b1c00443800007c140000141400000808000085
:100b2c0014140000187c00007c0800000404000071
:100b3c00084800005454000054240000043f0000f6
:100b4c0044400000203c000040400000207c00009d
:100b5c001c200000402000001c3c00004030000025
:100b6c00403c00004428000010280000440c000009
:100b7c0050500000503c000044640000544c0000f5
:100b8c004400000008360000410000000000000096
:100b9c007f0000000000000041360000080000004b
:0c0bac0018040000081000000c000000fd
:020000040000fa
:100bb8001600fa006007980071079800020f980065
:100bc800130f9800240f98008e0890006e00900074
:100bd8000080500046040700100798009e08900007
:100be8007e00900000805000410407002007980014
:100bf800ee0090000e089000808f500002003d002b
:100c080010002000010037000080eb00300798003a
:100c1800fe0090001e089000808f500002003d00ea
:100c280010002000010037000080eb00400798000a
:100c38009e0090002e009000008f500001003700a9
:100c4800000000002e089000004078000041780065
:100c5800fe0090006e0090002f040700ee00900048
:100c68000e089000808f500004003a00fe009000ab
:100c78001e089000808f5000190032001e00780076
:100c880000004000500798002e0090008000ea0005
:100c98005e009000808f500006003d002e009000fe
:100ca8001e0f1000ee0090003e00900000804000f3
:100cb80060079800de0090001e009000808f5000b2
:100cc800dfff3d001e0090001e0f4000fe00900058
:100cd8004e0090000080400070079800d9ff370050
:100ce8000080fa00000006000a00fa0010079800c9
:100cf8002107980032079800430798003e009000ab
:100d08000000e00007003d003e0090000000ea00ff
:100d180030079800ae0090003e0090000080500020
:100d2800200798000000eb00000f7800090037004a
:100d38004e009000804078002e0090001e00400079
:100d480001417800800078001e009000f20307003f
:100d58001e0fe8003e0090009e007800808f500033
:100d6800f3ff35000080fa00000006000a00fa00d0
:100d78001007980021079800320798004307980049
:100d88003e0090000000e00007003d003e0090009b
:100d98000000ea00300798009e0090003e00900096
:100da80000805000100798000000eb00000f78004a
:100db800080037004e009000804078001e00900028
:100dc8001e00400001417800ae009000d2030700e9
:100dd8001e0fe8003e0090009e007800808f5000b3
:100de800f4ff35000080fa00000006000a00fa004f
:100df800000f780011079800220798003307980021
:100e080044079800ce0190002e0190009e009000ab
:100e18001e007800d5ff07009e0090003e0090005d
:100e2800008040000000e900ce0190002e019000f3
:100e3800800078001e007800ccff0700ce019000eb
:100e48003e0190009e0090001e007800a6ff07005b
:100e58002e0090001e0040000000e900ce01900026
:100e68003e0190009e0090009fff07000080fa005e
:100e7800000006000e00fa00000f78001107980025
:100e880022079800330798004407980055079800f0
:100e9800660798006e029000be0190002e01900037
:100ea8009e0090001e00780041ff07006e0290002f
:100eb800de0190004e019000be0090002e009000d0
:100ec8003bff07006e029000de0190004e0190008b
:100ed8009e0090001e00780035ff07000080fa0091
:100ee800000006001400fa005007980061079800f7
:100ef80072079800030f9800140f9800fe009000e6
:100f0800010f78000000eb0010079800fe00900029
:100f1800e0ff2f000088b900000078000000e8001a
:100f28002007980010002000300798000000eb0010
:100f3800400798000e0890000000e000030035000c
:100f48000e089000e30f50006b003400b000200042
:100f58006e0037000e089000e10f50002b003200a1
:100f6800e10f500003003c000000e00038003200b0
:100f780048003700e20f500013003200e30f500022
:100f880044003a001e08900000417800ee009000ee
:100f98001e009000808040005e0090001e0040000f
:100fa8005d0307001e089000004178006e00900065
:100fb8009e004000de0190001e009000008041006d
:100fc80055030700330037001e08900000417800e1
:100fd8006e0090009e004000de0190001e00900010
:100fe800008051004c0307001e0890000041780063
:100ff800ee0090001e009000808040005e0090008f
:101008001e00500044030700220037001e0890000d
:1010180000417800ee0090001e0090008080500093
:101028005e0090001e0050003b0307001e08900061
:10103800004178006e0090009e005000de01900094
:101048001e00900000805100330307001100370094
:101058001e089000004178006e0090009e0050002d
:10106800de0190001e009000008041002a03070066
:101078001e08900000417800ee0090001e009000cd
:10108800808050005e0090001e0040002203070090
:10109800000000001e0090000000e8001007980003
:1010a800ce0090003e00900000804000400798006d
:1010b8003e0090000080e800300798004e00900045
:1010c80000004000800078002e0090000080400062
:1010d8000000e000080034001e0fe900ce00900078
:1010e8002e00900000804000400798002e009000dd
:1010f8000080e800200798001e0090009e007800fd
:10110800808f500093ff3d00a00020000080fa006f
:10111800000006001200fa005007980061079800c6
:1011280072079800030f9800fe009000010f7800e6
:101138000000eb0010079800fe009000e0ff2f0071
:101148000088b900000078000000e8002007980037
:1011580010002000300798000000eb0040079800be
:101168007e0090000000e0005b003d00b000200021
:101178005e0037000e08900000417800ee009000f5
:101188001e009000808040005e0090001e0040001d
:10119800e10207000e089000004178006e00900000
:1011a8009e004000de0190001e009000008041007b
:1011b800d90207000e089000004178006e009000e8
:1011c8009e004000de0190001e009000008051004b
:1011d800d10207000e08900000417800ee00900050
:1011e8001e009000808040005e0090001e005000ad
:1011f800c90207000e08900000417800ee00900038
:101208001e009000808050005e0090001e0050007c
:10121800c10207000e089000004178006e0090009f
:101228009e005000de0190001e00900000805100da
:10123800b90207000e089000004178006e00900087
:101248009e005000de0190001e00900000804100ca
:10125800b10207000e08900000417800ee009000ef
:101268001e009000808050005e0090001e0040002c
:10127800a90207001e0090000000e800100798006f
:10128800ce0090003e00900000804000400798008b
:101298003e0090000080e800300798004e00900063
:1012a80000004000800078002e0090000080400080
:1012b8000000e000080034001e0fe900ce00900096
:1012c8002e00900000804000400798002e009000fb
:1012d8000080e800200798001e0090009e0078001b
:1012e800808f5000a3ff3d00a00020000080fa007e
:1012f800000006000c00fa00000f780011079800a3
:10130800220798003307980044079800550798006b
:101318004e0090000000e00002003d00b0002000f8
:1013280067003700ce009000e0ff2f000088b9006a
:10133800800078002e009000808040004e009000d1
:101348001e004000de019000010178009e00900020
:1013580086fe0700ce009000e0ff2f000088b9004d
:10136800800078002e009000008140009e009000d0
:101378003e009000008040008000e9004e00900090
:101388001e004000de01900078fe0700ce009000ad
:10139800e0ff2f000088b900800078003e00900030
:1013a800808040001e0190004e0090000000410027
:1013b800de01900001017800800078001e007800ae
:1013c80049fe0700ce009000e0ff2f000088b9001a
:1013d800800078003e009000008140009e00900050
:1013e8004e009000808040002e0090001e004000bb
:1013f8000000e900de0190003bfe07009e0090001f
:101408004e009000808040004e0090001e0040007a
:101418005e029000130020004e019000b1fe07000c
:101428009e0090004e009000808040002e009000aa
:101438001e0140004e009000000051000000e9002d
:101448005e0290008001eb004e019000a5fe0700af
:101458009e0090003e009000808040004e0090006a
:10146800008050008000e9002e0090001e0140001e
:101478004e009000000051000000e9005e0290005c
:10148800330020004e01900096fe07009e00900059
:101498003e009000808040004e0090000080500088
:1014a8008000e9004e0090001e0040005e0290009f
:1014b800230020004e0190008afe0700a0002000b3
:1014c8000080fa00000006000c00fa0010079800df
:1014d800210798003207980043079800540798009e
:1014e8009e009000010f780006003700de01900092
:1014f8004e019000ae0090001e007800fafd070033
:101508001e0fe800be0090001e0090000080400002
:101518009e0f5000f5ff3c000080fa000000060016
:101528001600fa00500798006107980072079800a3
:10153800030f9800140f9800250f9800fe009000e4
:10154800010f78000000eb0010079800fe009000e3
:10155800e0ff2f000088b900000078000000e800d4
:101568002007980010002000300798000000eb00ca
:10157800400798004f0037001e0890000000e00068
:1015880018003a001e009000000040008000e800ab
:101598000e08900000814000ee0090001e009000b0
:1015a800808050005e0090001e004000ae09900050
:1015b800cdfd07001e007800000040008000e80014
:1015c8000e089000008140006e0090009e005000c0
:1015d800de0190001e00900000804100ae099000de
:1015e800c1fd07001e089000e10f500018003a00e6
:1015f8001e009000000040008000e8000e089000e7
:1016080000814000ee0090001e0090008080500095
:101618005e0090001e005000ae099000b2fd070069
:101628001e007800000040008000e8000e089000ce
:10163800008140006e0090009e005000de01900086
:101648001e00900000805100ae099000a6fd070022
:101658001e0090000000e80010079800ce009000df
:101668003e00900000804000400798003e00900037
:101678000080e800300798004e009000000040000d
:10168800800078002e009000008040000000e000fc
:10169800080034001e0fe900ce0090002e009000d4
:1016a80000804000400798002e0090000080e8006d
:1016b800200798001e0090009e007800808f500040
:1016c800adff3d000080fa00000006000e00fa00a1
:1016d80010079800210798003207980043079800e0
:1016e80054079800650798005e0090000000e0002d
:1016f80002003d00b00020003e003700ae00900020
:10170800010f78000e003700de009000e0ff2f0088
:101718000088b900800078003e009000808040007a
:101728001e0190005e00900000004100ee01900054
:10173800010178009e0078008cfd07001e0fe8006c
:10174800ce0090002e009000008040009e0f5000b8
:10175800edff3c00de009000e0ff2f000088b9009c
:10176800800078004e009000008040000001e900f1
:10177800ae0090005e009000808040009e019000c6
:101788003e009000808141005e0090000080510082
:101798000000e900ee0290000002eb0082017800f0
:1017a8005e0190005eff0700de009000e0ff2f0062
:1017b8000088b900800078004e009000008040004a
:1017c8000001e900ae0090005e00900080804000bb
:1017d8009e0190005e00900000804100ee029000a3
:1017e80014002000820178005e0190004cff070081
:1017f800a00020000080fa00000006000800fa009f
:10180800000f780011079800220798003307980006
:101818002e0090000000e00002003d00b000200013
:101828001a0037002e009000000040008000e800f9
:101838001e0190002e00900000005100be01900093
:1018480001017800800078001e00780026fd07005e
:10185800be0290000002eb008001eb002e01900018
:101868009e0090001e0078002dff0700be02900029
:10187800140020008001eb002e0190009e009000d3
:101888001e00780026ff0700a00020000080fa0054
:10189800000006001600fa0050079800610798003b
:1018a800624f9800030f9800140f98006e4890003c
:1018b800ff4f500004003600ee489000e0c7b30028
:1018c80080cf500002003600b00020005a003700d8
:1018d800ee48900000ceb30000c04000604f980072
:1018e8005e009000000f78004b00370010c0b30076
:1018f800004f9800ee009000110798003d00370057
:101908000000eb00300798002f0037000000eb00c4
:1019180020079800250037006e4890000080fb00e3
:10192800200f9800de0090001e81100021508000da
:1019380081017800110009000301d8008000fd0032
:1019480001017800ae0990006518b9000000780020
:101958000200400001402800e14078000e48900055
:1019680000c060000004e000030032000e08900090
:1019780000407800020037001e0890000040780000
:101988001e019000ae009000810041003e019000d1
:101998009e0141000041780003007800de00070046
:1019a8002e0090000000e8002007980020508000da
:1019b800ae009000808f5000d7ff35003e009000a9
:1019c8000000e8003007980020508000be0090001a
:1019d800808f5000cdff35000e4890000040400039
:1019e800004f9800205080009e009000008040002a
:1019f8001007980020508000c300dd006e009000a2
:101a0800808040001e009000808f5000bcff3c008a
:101a1800205080001e0f4000205080006500b90053
:101a2800800078005e009000008040009e0f50000b
:101a3800aeff3c00a00020000080fa000000060075
:101a48000c00fa0010079800210798003207980048
:101a580043079800540798000000eb00000f780037
:101a68005b0037003e009000104078005e02900056
:101a7800ce01900000417800ae0090001e0090005a
:101a880084ff0700000f78001e007800ea0f50005e
:101a9800020032001e0078005200370006cabf005c
:101aa8000004e0003600320021508000b0ff2f0013
:101ab8000088b900800078001e0090000080500067
:101ac8000208200000014100205080006500b90094
:101ad80000007800800f510014003d002050800065
:101ae8004300dd00ae009000008040002007980011
:101af800010220002e0090008080500020508000bd
:101b08004300dd00808f500002003d00c00020002f
:101b1800340037000000eb00100798003e009000ea
:101b28000000e800300798002900370020508000a6
:101b38006500b900000078009e0090000080400019
:101b480010079800205080006700b9000000780056
:101b5800de01900000017800ae0090001e009000a9
:101b680061fc07003e0090000000e8003007980084
:101b78001e0090000000e8001007980014003700cd
:101b8800205080006500b900000078009e00900099
:101b98000080400010079800205080006700b900be
:101ba80000007800de01900000017800ae0090008f
:101bb8001e0090004cfc07003e0090000000e8006a
:101bc800300798001e0090000000e80010079800f9
:101bd8003e009000104078000004e000a1ff3a00a9
:101be800a00020000080fa00000006000200fa00b1
:101bf800000f78001e0078000000e00002003a00a4
:101c0800b0002000030037009e00780021508800b3
:101c1800a00020000080fa00000006000200fa0080
:101c2800004f78001e4078000004e00003003200f6
:101c380010c0b30006eab70001003700066aef00db
:101c48000080fa00000006000e00fa002007980045
:101c580031079800420798005307980064079800d6
:101c68000000eb00100798001b0037000000eb0095
:101c7800000f7800110037009e0090004e00900081
:101c88000088b900000078001e00400000004000f5
:101c9800ee009000008040001000780000417800bd
:101ca8009e0090003e009000808040002e00900032
:101cb8001e004000180007001e0fe8004e009000ac
:101cc8009e007800808f5000ebff35001e009000ca
:101cd8000000e800100798009e0090005e00900049
:101ce800808f5000e1ff35000080fa0000000600f8
:101cf8000200fa00000f78001e0078000000e000e3
:101d080002003d001e00ea00010037001e007800b6
:101d18000080fa00000006000600fa00000f7800b4
:101d280011079800424798001e0078000000e00064
:101d38000a003500f00720009e007800808f5000d0
:101d480006003c001e0090000000e0000300350083
:101d58001e009000ff0f50000200340020002000f9
:101d6800500037004e4090000080fb00e10f50000b
:101d780005003200e20f5000320032000000e0009f
:101d880018003200460037001e0090000000e000f6
:101d980001003d00670040004380de00c700dd0011
:101da8001e81400041802000810041009140780060
:101db800014178009e009000e78060001300200039
:101dc8008118dd0081407800814071004700dd0006
:101dd8001e014000408020000000410001487800ba
:101de8002f0037001e0090000000e00001003d00b9
:101df800670040004380de00c700dd001e81400010
:101e08004180200081004100914078000141780024
:101e18009e009000e7806000130020008118dd001c
:101e28008140780081c0ea00814061004700dd0000
:101e38001e01400040802000000041000148780059
:101e4800170037001e0090000000e00001003d0070
:101e5800670040004380de00c700dd001e814000af
:101e680041802000810041009140780001417800c4
:101e78009e009000e7806000130020008118dd00bc
:101e880081407800814069004700dd001e01400064
:101e98004080200000004100014878000000000058
:101ea800100020000080fa00000006000400fa007c
:101eb8008000eb000000eb002e000700cb000700bd
:101ec80080072000d200070000042000d00007008f
:101ed8000000eb0010079800130037000000eb002b
:101ee800000f7800090037001e0090004700dd0051
:101ef8009e00400040802000008040001040780094
:101f08000080fb00c20007001e0fe800f007200059
:101f18009e007800808f5000f3ff34001e00900070
:101f28000000e800100798001e009000e30f500022
:101f3800eaff3400c20007000080fa000000060033
:101f48000600fa00004f7800110798002207980051
:101f58002e009000c700dd001e0090008080400029
:101f680040802000008040001e4878000080fa0071
:101f7800000006000400fa00000f7800110798001e
:101f88009e009000f0072000808f500009003c0060
:101f98001e0090000000e000060035001e007800da
:101fa800e30f500003003c001e0078000000e00032
:101fb80002003d0020002000110037001e007800bc
:101fc800004088001e009000104088001002200089
:101fd8000d0007001e0090000b000700f00720000e
:101fe8000900070020022000070007001e007800f3
:101ff8000500070030002000030007001000200043
:102008000080fa00000006000200fa00000f7800c5
:1020180076000700800720007d00070000082000e8
:102028007b0007001e007800790007008400070085
:102038000080fa00000006000200fa00000f780095
:102048006a000700800720007100070000042000d4
:102058006f0007001e0078006d0007007800070079
:102068000080fa00000006000000fa00e00a2000e4
:10207800e5ff070000022000e3ff07000000eb0077
:10208800e1ff0700000b2000dfff0700800c2000a5
:10209800ddff07000000eb00dbff07000001200068
:1020a800d9ff070000042000d7ff07001008200010
:1020b800d5ff0700f0082000d3ff0700100a200012
:1020c800d1ff0700600a2000cfff0700800a200028
:1020d800cdff0700f0012000cbff0700400a2000d9
:1020e800c9ff0700300d2000c7ff07000000eb0004
:1020f800c5ff0700500d2000c3ff0700000f200098
:10210800c1ff0700900d2000bfff0700200220003c
:10211800bdff0700a00d2000bbff07002000200026
:10212800b9ff0700b00d2000b7ff0700000420002a
:10213800b5ff0700d0082000b3ff070040012000ca
:10214800b1ff0700f00a2000afff07000080fa0087
:10215800000006000400fa008000eb000000eb001d
:1021680084ff07000000eb001007980014003700f8
:102178000000eb00000f78000a0037000000eb00b9
:10218800adff07001e0090004700dd009e004000e4
:1021980040802000008040008040eb00014878002b
:1021a8001e0fe800f00720009e007800808f500086
:1021b800f2ff34001e0090000000e80010079800ad
:1021c8001e009000e30f5000e9ff34000080fa0081
:1021d800000006000000fa002003200020108800fc
:1021e80007e2a8000080fa00000006000000fa00dc
:1021f8000602a800000000003010800061006000a6
:102208000000e000fcff3a000080fa000000060031
:102218000200fa00000f78009e0078001110880074
:1022280000000000411080000000240000806000d1
:102238000000e000fbff3a000080fa000000060002
:102248000000fa000642a8000000000030108000dc
:10225800640060000000e000fcff3a000080fa0023
:10226800000006000000fa00a822ef000080eb0042
:1022780030168800ca22ef00cc22ef00d022ef00ef
:10228800d222ef00d622ef00de22ef00e222ef009a
:10229800d0ff070074ff0700aeff07000002eb0045
:1022a80013002000e23c28008000eb000000eb0057
:0c22b800e3fd0700fdfe0700ffff3700fc
:020000040000fa
:1022c400000800000402000000000000040a0000ee
:1022d40004000000020000000100010000000000f2
:0422e40000000000f6
:020000040000fa
:0200000401f009
:04000000eabf000053
:020000040000fa
:0200000401f009
:04000400ff7f00007a
:020000040000fa
:0200000401f009
:04000800ffff0000f6
:020000040000fa
:0200000401f009
:04001400ffff0000ea
:020000040000fa
:0200000401f009
:04001800ffff0000e6
:00000001FF
