:020000040000fa
:080000000001040000000000f3
:020000040000fa
:04000800c80100002b
:020000040000fa
:04000c00c801000027
:020000040000fa
:04001000c801000023
:020000040000fa
:04001400c80100001f
:020000040000fa
:04001800c80100001b
:020000040000fa
:04001c00c801000017
:020000040000fa
:04002000c801000013
:020000040000fa
:04002400c80100000f
:020000040000fa
:04002800c80100000b
:020000040000fa
:04002c00c801000007
:020000040000fa
:04003000c801000003
:020000040000fa
:04003400c8010000ff
:020000040000fa
:04003800c8010000fb
:020000040000fa
:04003c00c8010000f7
:020000040000fa
:04004000c8010000f3
:020000040000fa
:04004400c8010000ef
:020000040000fa
:04004800c8010000eb
:020000040000fa
:04004c00c8010000e7
:020000040000fa
:04005000c8010000e3
:020000040000fa
:04005400c8010000df
:020000040000fa
:04005800c8010000db
:020000040000fa
:04005c00c8010000d7
:020000040000fa
:04006000c8010000d3
:020000040000fa
:04006400c8010000cf
:020000040000fa
:04006800c8010000cb
:020000040000fa
:04006c00c8010000c7
:020000040000fa
:04007000c8010000c3
:020000040000fa
:04007400c8010000bf
:020000040000fa
:04007800c8010000bb
:020000040000fa
:04007c00c8010000b7
:020000040000fa
:04008000c8010000b3
:020000040000fa
:04008400c8010000af
:020000040000fa
:04008800c8010000ab
:020000040000fa
:04008c00c8010000a7
:020000040000fa
:04009000c8010000a3
:020000040000fa
:04009400c80100009f
:020000040000fa
:04009800c80100009b
:020000040000fa
:04009c00c801000097
:020000040000fa
:0400a000c801000093
:020000040000fa
:0400a400c80100008f
:020000040000fa
:0400a800c80100008b
:020000040000fa
:0400ac00c801000087
:020000040000fa
:0400b000c801000083
:020000040000fa
:0400b400c80100007f
:020000040000fa
:0400b800c80100007b
:020000040000fa
:0400bc00c801000077
:020000040000fa
:0400c000c801000073
:020000040000fa
:0400c400c80100006f
:020000040000fa
:0400c800c80100006b
:020000040000fa
:0400cc00c801000067
:020000040000fa
:0400d000c801000063
:020000040000fa
:0400d400c80100005f
:020000040000fa
:0400d800c80100005b
:020000040000fa
:04010800c80100002a
:020000040000fa
:04010c00c801000026
:020000040000fa
:04011000c801000022
:020000040000fa
:04011400c80100001e
:020000040000fa
:04011800c80100001a
:020000040000fa
:04011c00c801000016
:020000040000fa
:04012000c801000012
:020000040000fa
:04012400c80100000e
:020000040000fa
:04012800c80100000a
:020000040000fa
:04012c00c801000006
:020000040000fa
:04013000c801000002
:020000040000fa
:04013400c8010000fe
:020000040000fa
:04013800c8010000fa
:020000040000fa
:04013c00c8010000f6
:020000040000fa
:04014000c8010000f2
:020000040000fa
:04014400c8010000ee
:020000040000fa
:04014800c8010000ea
:020000040000fa
:04014c00c8010000e6
:020000040000fa
:04015000c8010000e2
:020000040000fa
:04015400c8010000de
:020000040000fa
:04015800c8010000da
:020000040000fa
:04015c00c8010000d6
:020000040000fa
:04016000c8010000d2
:020000040000fa
:04016400c8010000ce
:020000040000fa
:04016800c8010000ca
:020000040000fa
:04016c00c8010000c6
:020000040000fa
:04017000c8010000c2
:020000040000fa
:04017400c8010000be
:020000040000fa
:04017800c8010000ba
:020000040000fa
:04017c00c8010000b6
:020000040000fa
:04018000c8010000b2
:020000040000fa
:04018400c8010000ae
:020000040000fa
:04018800c8010000aa
:020000040000fa
:04018c00c8010000a6
:020000040000fa
:04019000c8010000a2
:020000040000fa
:04019400c80100009e
:020000040000fa
:04019800c80100009a
:020000040000fa
:04019c00c801000096
:020000040000fa
:0401a000c801000092
:020000040000fa
:0401a400c80100008e
:020000040000fa
:0401a800c80100008a
:020000040000fa
:0401ac00c801000086
:020000040000fa
:0401b000c801000082
:020000040000fa
:0401b400c80100007e
:020000040000fa
:0401b800c80100007a
:020000040000fa
:0401bc00c801000076
:020000040000fa
:0401c000c801000072
:020000040000fa
:0401c400c80100006e
:020000040000fa
:0401c800c80100006a
:020000040000fa
:0401cc00c801000066
:020000040000fa
:0401d000c801000062
:020000040000fa
:0401d400c80100005e
:020000040000fa
:0401d800c80100005a
:020000040000fa
:100200008fd820000eff20000e01880000000000a3
:10021000000020000000e000020032000001200089
:1002200020028800140007005b0007000000e000c7
:1002300003003a0080e620000100200002003700a1
:100240000000200001002000810f7000010032003a
:1002500014000700000020000000e000020032004f
:100260000000020000000000741302000000000003
:100270000040da000000fe004440a900603e20007b
:100280000000e0000300320000002000a001880010
:100290004440a800000006008a1f78008b1f7800e9
:1002a0000000060091018800800478000000eb0047
:1002b0001a003700e284440032a0b4009905ba0065
:1002c000e284440032a0b4009906ba00e2844400fb
:1002d00032a0b4000006eb00476fde00fd07b2005d
:1002e000636ce10003003a00ebff07000000eb0045
:1002f0000a003700606ce10004003a00005deb008a
:100300008b05e900fdff3e00040037006168e10055
:10031000010032000086eb000b00070019c7ba008d
:100320001905ba000e04e00003003a000a00e000dc
:10033000e0ff3a0000000600fe07b2009e018800c0
:100340008a047800f5ff3700395dba008b05e900b3
:100350000c003200295dba008b05e900080032006c
:100360000c00e00003003a00e284440032a0b40034
:10037000f5ff370019ddba008b05e900faff3a00f6
:100380008904e800e184440032a0b40000000600c3
:0c0390000040da000000fe000000050044
:020000040000fa
:10039c000000000000000000000000000000000051
:1003ac000000000000000000000000000000000041
:1003bc0000c00000e0e00000e0e00000e0e0000031
:1003cc00e0e00000e0e00000e0e00000e0e0000021
:1003dc00e0e00000e0e00000e0e00000c000000011
:1003ec000000000000c00000e0e00000e0e00000c1
:1003fc00e0e00000e0e00000e0e00000e0e00000f1
:10040c00e0e00000e0e00000e0e00000c0000000e0
:10041c000000000000c00000e0e00000e0e0000090
:10042c00e0e00000e0e00000e0e00000e0e00000c0
:10043c00e0e00000e0e00000e0e00000c0000000b0
:10044c000000000000c00000e0e00000e0e0000060
:10045c00e0e00000e0e00000e0e00000e0e0000090
:10046c00e0e00000e0e00000e0e00000e0e0000080
:10047c00c0000000000000000000000000000000b0
:10048c000000000000000000000000000000000060
:10049c000000000000000000000000000000000050
:1004ac000000000000000000000000000000000040
:1004bc00000100000303000003030000030300001d
:1004cc0003ff0000ffff0000ffff0000030300001c
:1004dc0003030000030300000303000001000000fd
:1004ec000000000000ff0000ffff0000ffff000005
:1004fc00c3c30000c3c30000c3c30000c383000018
:10050c0003030000030300000303000001000000cc
:10051c000000000000ff0000ffff0000ffff0000d4
:10052c00e3e30000e3e30000e3e30000e3e30000a7
:10053c00e3e30000e3e30000e3e30000c10000009c
:10054c000000000000010000030300000303000092
:10055c000303000003ff0000ffff0000ffff00008b
:10056c000303000003030000030300000303000067
:10057c00010000000000000000000000000000006e
:10058c00000000000000000000000000000000005f
:10059c00000000000000000000000000000000004f
:1005ac00000000000000000000000000000000003f
:1005bc00000000000000000000000000000000002f
:1005cc0000ff0000ffff0000ffff00000000000024
:1005dc00000000000000000000000000000000000f
:1005ec000000000000ff0000ffff0000ffff000004
:1005fc00c7c70000c7c70000c7c70000c7c30000bb
:10060c00c0c00000c0c00000c0c0000080000000de
:10061c000000000080c10000c3c30000c3c3000081
:10062c00c3c30000c3c30000c3c30000c3c30000a6
:10063c00c3c30000ffff0000ffff0000ff0000002d
:10064c00000000000000000000000000000000009e
:10065c000000000000ff0000ffff0000ffff000093
:10066c00000000000000000000000000000000007e
:10067c00000000000000000000000000000000006e
:10068c00000000000000000000000000000000005e
:10069c00000000000000000000000000000000004e
:1006ac00000000000000000000000000000000003e
:1006bc00000000000000000000000000000000002e
:1006cc000003000007070000070300000000000003
:1006dc00000000000000000000000000000000000e
:1006ec0000000000000300000707000007070000df
:1006fc0007070000070700000707000007070000b6
:10070c0007070000070700000707000003000000b0
:10071c0000000000030700000707000007070000a7
:10072c000707000007070000070700000707000085
:10073c000707000007070000070700000300000080
:10074c00000000000000000000000000000000009d
:10075c000000000000030000070700000703000072
:10076c00000000000000000000000000000000007d
:10077c00000000000000000000000000000000006d
:10078c00000000000000000000000000000000005d
:10079c00333900002e38000020330000312e0000c9
:1007ac003400000000000000000000000000000009
:1007bc00005f0000000000000007000000070000c0
:1007cc00001400007f1400007f140000242a000095
:1007dc006b2a000012230000130800006462000062
:1007ec0036490000553200004000000009070000a7
:1007fc0000000000001c000022410000000000006e
:10080c00412200001c000000140800003e080000fb
:10081c0014080000083e000008080000005000000a
:10082c003000000000080000080800000808000064
:10083c0000600000600000000020000010080000b4
:10084c00040200003e510000494500003e0000003b
:10085c00427f00004000000042610000514900004e
:10086c0046210000414500004b31000018140000e7
:10087c00127f00001027000045450000453900009c
:10088c003c4a000049490000300300007109000097
:10089c0005030000364900004949000036060000f7
:1008ac0049490000291e00000036000036000000f7
:1008bc000000000056360000000000000814000084
:1008cc002241000000140000141400001414000055
:1008dc000041000022140000080200000151000039
:1008ec000906000032490000794100003e7e0000fc
:1008fc0011110000117e00007f49000049490000e1
:10090c00363e000041410000412200007f410000c2
:10091c00412200001c7f00004949000049410000b1
:10092c007f09000009090000013e00004141000060
:10093c00497a00007f080000080800007f000000d2
:10094c00417f00004100000020400000413f0000ba
:10095c00017f000008140000224100007f400000cd
:10096c0040400000407f0000020c0000027f0000ad
:10097c007f020000040800007f3e0000414100009f
:10098c00413e00007f09000009090000063e0000fe
:10099c0041510000215e00007f0900001929000070
:1009ac0046460000494900004931000001010000a1
:1009bc007f010000013f000040400000403f00006c
:1009cc001f200000402000001f3f000040380000a6
:1009dc00403f00006314000008140000630700008f
:1009ec000870000008070000615100004945000034
:1009fc00437f0000414100000000000002040000a1
:100a0c00081000002000000000410000417f0000a1
:100a1c0004020000010200000440000040400000fd
:100a2c004040000000010000020400000020000013
:100a3c0054540000547800007f48000044440000e7
:100a4c0038380000444400004420000038440000c2
:100a5c00444800007f380000545400005418000033
:100a6c00087e000009010000020c00005252000038
:100a7c00523e00007f0800000404000078000000d3
:100a8c00447d00004000000020400000443d000078
:100a9c00007f00001028000044000000004100000e
:100aac007f400000007c0000040800000478000077
:100abc007c08000004040000783800004444000066
:100acc00443800007c1400001414000008080000d6
:100adc0014140000187c00007c08000004040000c2
:100aec00084800005454000054240000043f000047
:100afc0044400000203c000040400000207c0000ee
:100b0c001c200000402000001c3c00004030000075
:100b1c00403c00004428000010280000440c000059
:100b2c0050500000503c000044640000544c000045
:100b3c0044000000083600004100000000000000e6
:100b4c007f0000000000000041360000080000009b
:0c0b5c0018040000081000000c0000004d
:020000040000fa
:100b68001600fa006007980071079800020f9800b5
:100b7800130f9800240f98008e0890006e009000c4
:100b88000080500046040700100798009e08900057
:100b98007e00900000805000410407002007980064
:100ba800ee0090000e089000808f500002003d007b
:100bb80010002000010037000080eb00300798008b
:100bc800fe0090001e089000808f500002003d003b
:100bd80010002000010037000080eb00400798005b
:100be8009e0090002e009000008f500001003700fa
:100bf800000000002e0890000040780000417800b6
:100c0800fe0090006e00900062050700ee00900064
:100c18000e089000808f500004003a00fe009000fb
:100c28001e089000808f5000190032001e007800c6
:100c380000004000500798002e0090008000ea0055
:100c48005e009000808f500006003d002e0090004e
:100c58001e0f1000ee0090003e0090000080400043
:100c680060079800de0090001e009000808f500002
:100c7800dfff3d001e0090001e0f4000fe009000a8
:100c88004e0090000080400070079800d9ff3700a0
:100c98000080fa00000006000a00fa001007980019
:100ca8002107980032079800430798003e009000fb
:100cb8000000e00007003d003e0090000000ea0050
:100cc80030079800ae0090003e0090000080500071
:100cd800200798000000eb00000f7800090037009b
:100ce8004e009000804078002e0090001e004000ca
:100cf80001417800800078001e009000250507005b
:100d08001e0fe8003e0090009e007800808f500083
:100d1800f3ff35000080fa00000006000a00fa0020
:100d28001007980021079800320798004307980099
:100d38003e0090000000e00007003d003e009000eb
:100d48000000ea00300798009e0090003e009000e6
:100d580000805000100798000000eb00000f78009a
:100d6800080037004e009000804078001e00900078
:100d78001e00400001417800ae0090000505070004
:100d88001e0fe8003e0090009e007800808f500003
:100d9800f4ff35000080fa00000006000a00fa009f
:100da800000f780011079800220798003307980071
:100db80044079800ce0190002e0190009e009000fc
:100dc8001e007800d5ff07009e0090003e009000ae
:100dd800008040000000e900ce0190002e01900044
:100de800800078001e007800ccff0700ce0190003c
:100df8003e0190009e0090001e007800a6ff0700ac
:100e08002e0090001e0040000000e900ce01900076
:100e18003e0190009e0090009fff07000080fa00ae
:100e2800000006000e00fa00000f78001107980075
:100e38002207980033079800440798005507980040
:100e4800660798006e029000be0190002e01900087
:100e58009e0090001e00780041ff07006e0290007f
:100e6800de0190004e019000be0090002e00900020
:100e78003bff07006e029000de0190004e019000db
:100e88009e0090001e00780035ff07000080fa00e1
:100e9800000006001400fa00500798006107980047
:100ea80072079800030f9800140f9800fe00900036
:100eb800010f78000000eb0010079800fe0090007a
:100ec800e0ff2f000088b900000078000000e8006b
:100ed8002007980010002000300798000000eb0061
:100ee800400798000e0890000000e000030035005d
:100ef8000e089000e30f50006b003400b000200093
:100f08006e0037000e089000e10f50002b003200f1
:100f1800e10f500003003c000000e0003800320000
:100f280048003700e20f500013003200e30f500072
:100f380044003a001e08900000417800ee0090003e
:100f48001e009000808040005e0090001e0040005f
:100f5800900407001e089000004178006e00900081
:100f68009e004000de0190001e00900000804100bd
:100f780088040700330037001e08900000417800fd
:100f88006e0090009e004000de0190001e00900060
:100f9800008051007f0407001e089000004178007f
:100fa800ee0090001e009000808040005e009000df
:100fb8001e00500077040700220037001e0890002a
:100fc80000417800ee0090001e00900080805000e4
:100fd8005e0090001e0050006e0407001e0890007e
:100fe800004178006e0090009e005000de019000e5
:100ff8001e009000008051006604070011003700b1
:101008001e089000004178006e0090009e0050007d
:10101800de0190001e009000008041005d04070082
:101028001e08900000417800ee0090001e0090001d
:10103800808050005e0090001e00400055040700ac
:10104800000000001e0090000000e8001007980053
:10105800ce0090003e0090000080400040079800bd
:101068003e0090000080e800300798004e00900095
:1010780000004000800078002e00900000804000b2
:101088000000e000080034001e0fe900ce009000c8
:101098002e00900000804000400798002e0090002d
:1010a8000080e800200798001e0090009e0078004d
:1010b800808f500093ff3d00a00020000080fa00c0
:1010c800000006001200fa00500798006107980017
:1010d80072079800030f9800fe009000010f780037
:1010e8000000eb0010079800fe009000e0ff2f00c2
:1010f8000088b900000078000000e8002007980088
:1011080010002000300798000000eb00400798000e
:101118007e0090000000e0005b003d00b000200071
:101128005e0037000e08900000417800ee00900045
:101138001e009000808040005e0090001e0040006d
:10114800140407000e089000004178006e0090001b
:101158009e004000de0190001e00900000804100cb
:101168000c0407000e089000004178006e00900003
:101178009e004000de0190001e009000008051009b
:10118800040407000e08900000417800ee0090006b
:101198001e009000808040005e0090001e005000fd
:1011a800fc0307000e08900000417800ee00900054
:1011b8001e009000808050005e0090001e005000cd
:1011c800f40307000e089000004178006e009000bc
:1011d8009e005000de0190001e009000008051002b
:1011e800ec0307000e089000004178006e009000a4
:1011f8009e005000de0190001e009000008041001b
:10120800e40307000e08900000417800ee0090000b
:101218001e009000808050005e0090001e0040007c
:10122800dc0307001e0090000000e800100798008b
:10123800ce0090003e0090000080400040079800db
:101248003e0090000080e800300798004e009000b3
:1012580000004000800078002e00900000804000d0
:101268000000e000080034001e0fe900ce009000e6
:101278002e00900000804000400798002e0090004b
:101288000080e800200798001e0090009e0078006b
:10129800808f5000a3ff3d00a00020000080fa00ce
:1012a800000006000c00fa00000f780011079800f3
:1012b80022079800330798004407980055079800bc
:1012c8004e0090000000e00002003d00b000200049
:1012d80067003700ce009000e0ff2f000088b900bb
:1012e800800078002e009000808040004e00900022
:1012f8001e004000de019000010178009e00900071
:1013080086fe0700ce009000e0ff2f000088b9009d
:10131800800078002e009000008140009e00900020
:101328003e009000008040008000e9004e009000e0
:101338001e004000de01900078fe0700ce009000fd
:10134800e0ff2f000088b900800078003e00900080
:10135800808040001e0190004e0090000000410077
:10136800de01900001017800800078001e007800fe
:1013780049fe0700ce009000e0ff2f000088b9006a
:10138800800078003e009000008140009e009000a0
:101398004e009000808040002e0090001e0040000b
:1013a8000000e900de0190003bfe07009e0090006f
:1013b8004e009000808040004e0090001e004000cb
:1013c8005e029000130020004e019000b1fe07005d
:1013d8009e0090004e009000808040002e009000fb
:1013e8001e0140004e009000000051000000e9007e
:1013f8005e0290008001eb004e019000a5fe070000
:101408009e0090003e009000808040004e009000ba
:10141800008050008000e9002e0090001e0140006e
:101428004e009000000051000000e9005e029000ac
:10143800330020004e01900096fe07009e009000a9
:101448003e009000808040004e00900000805000d8
:101458008000e9004e0090001e0040005e029000ef
:10146800230020004e0190008afe0700a000200003
:101478000080fa00000006000c00fa00100798002f
:1014880021079800320798004307980054079800ee
:101498009e009000010f780006003700de019000e2
:1014a8004e019000ae0090001e007800fafd070083
:1014b8001e0fe800be0090001e0090000080400053
:1014c8009e0f5000f5ff3c000080fa000000060067
:1014d8001600fa00500798006107980072079800f4
:1014e800030f9800140f9800250f9800fe00900035
:1014f800010f78000000eb0010079800fe00900034
:10150800e0ff2f000088b900000078000000e80024
:101518002007980010002000300798000000eb001a
:10152800400798004f0037001e0890000000e000b8
:1015380018003a001e009000000040008000e800fb
:101548000e08900000814000ee0090001e00900000
:10155800808050005e0090001e004000ae099000a0
:10156800cdfd07001e007800000040008000e80064
:101578000e089000008140006e0090009e00500010
:10158800de0190001e00900000804100ae0990002e
:10159800c1fd07001e089000e10f500018003a0036
:1015a8001e009000000040008000e8000e08900037
:1015b80000814000ee0090001e00900080805000e6
:1015c8005e0090001e005000ae099000b2fd0700ba
:1015d8001e007800000040008000e8000e0890001f
:1015e800008140006e0090009e005000de019000d7
:1015f8001e00900000805100ae099000a6fd070073
:101608001e0090000000e80010079800ce0090002f
:101618003e00900000804000400798003e00900087
:101628000080e800300798004e009000000040005d
:10163800800078002e009000008040000000e0004c
:10164800080034001e0fe900ce0090002e00900024
:1016580000804000400798002e0090000080e800bd
:10166800200798001e0090009e007800808f500090
:10167800adff3d000080fa00000006000e00fa00f1
:101688001007980021079800320798004307980030
:1016980054079800650798005e0090000000e0007d
:1016a80002003d00b00020003e003700ae00900070
:1016b800010f78000e003700de009000e0ff2f00d9
:1016c8000088b900800078003e00900080804000cb
:1016d8001e0190005e00900000004100ee019000a5
:1016e800010178009e0078008cfd07001e0fe800bd
:1016f800ce0090002e009000008040009e0f500009
:10170800edff3c00de009000e0ff2f000088b900ec
:10171800800078004e009000008040000001e90041
:10172800ae0090005e009000808040009e01900016
:101738003e009000808141005e00900000805100d2
:101748000000e900ee0290000002eb008201780040
:101758005e0190005eff0700de009000e0ff2f00b2
:101768000088b900800078004e009000008040009a
:101778000001e900ae0090005e009000808040000b
:101788009e0190005e00900000804100ee029000f3
:1017980014002000820178005e0190004cff0700d1
:1017a800a00020000080fa00000006000800fa00ef
:1017b800000f780011079800220798003307980057
:1017c8002e0090000000e00002003d00b000200064
:1017d8001a0037002e009000000040008000e8004a
:1017e8001e0190002e00900000005100be019000e4
:1017f80001017800800078001e00780026fd0700af
:10180800be0290000002eb008001eb002e01900068
:101818009e0090001e0078002dff0700be02900079
:10182800140020008001eb002e0190009e00900023
:101838001e00780026ff0700a00020000080fa00a4
:10184800000006001600fa0050079800610798008b
:10185800624f9800030f9800140f98006e4890008c
:10186800ff4f500004003600ee489000e0c7b30078
:1018780080cf500002003600b00020005a00370028
:10188800ee48900000ceb30000c04000604f9800c2
:101898005e009000000f78004b00370010c0b300c6
:1018a800004f9800ee009000110798003d003700a7
:1018b8000000eb00300798002f0037000000eb0015
:1018c80020079800250037006e4890000080fb0034
:1018d800200f9800de0090001e811000015c80003f
:1018e80081017800110009000301d8008000fd0083
:1018f80001017800ae0990006518b9000000780071
:1019080002004000813d2800e14078000e48900028
:1019180000c060000004e000030032000e089000e0
:1019280000407800020037001e0890000040780050
:101938001e019000ae009000810041003e01900021
:101948009e01410000417800030078001102070061
:101958002e0090000000e80020079800005c80003e
:10196800ae009000808f5000d7ff35003e009000f9
:101978000000e80030079800005c8000be0090007e
:10198800808f5000cdff35000e4890000040400089
:10199800004f9800005c80009e009000008040008e
:1019a80010079800005c8000c300dd006e00900006
:1019b800808040001e009000808f5000bcff3c00db
:1019c800005c80001e0f4000005c80006500b900cc
:1019d800800078005e009000008040009e0f50005c
:1019e800aeff3c00a00020000080fa0000000600c6
:1019f8000c00fa0010079800210798003207980099
:101a080043079800540798000000eb00000f780087
:101a18005b0037003e009000104078005e029000a6
:101a2800ce01900000417800ae0090001e009000aa
:101a380084ff0700000f78001e007800ea0f5000ae
:101a4800020032001e0078005200370082cbbf002f
:101a58000004e00036003200015c8000b0ff2f0077
:101a68000088b900800078001e00900000805000b7
:101a78000208200000014100005c80006500b900f8
:101a880000007800800f510014003d00005c8000c9
:101a98004300dd00ae009000008040002007980061
:101aa800010220002e00900080805000005c800021
:101ab8004300dd00808f500002003d00c000200080
:101ac800340037000000eb00100798003e0090003b
:101ad8000000e8003007980029003700005c80000b
:101ae8006500b900000078009e009000008040006a
:101af80010079800005c80006700b90000007800bb
:101b0800de01900000017800ae0090001e009000f9
:101b180061fc07003e0090000000e80030079800d4
:101b28001e0090000000e80010079800140037001d
:101b3800005c80006500b900000078009e009000fd
:101b48000080400010079800005c80006700b90022
:101b580000007800de01900000017800ae009000df
:101b68001e0090004cfc07003e0090000000e800ba
:101b7800300798001e0090000000e8001007980049
:101b88003e009000104078000004e000a1ff3a00f9
:101b9800a00020000080fa00000006000200fa0001
:101ba800000f78001e0078000000e00002003a00f4
:101bb800b0002000030037009e007800015c880018
:101bc800a00020000080fa00000006000200fa00d1
:101bd800004f78001e4078000004e0000300320047
:101be80010c0b30082ebb70001003700826bef0032
:101bf8000080fa00000006000e00fa002007980096
:101c08003107980042079800530798006407980026
:101c18000000eb00100798001b0037000000eb00e5
:101c2800000f7800110037009e0090004e009000d1
:101c38000088b900000078001e0040000000400045
:101c4800ee0090000080400010007800004178000d
:101c58009e0090003e009000808040002e00900082
:101c68001e0040004b0107001e0fe8004e009000c8
:101c78009e007800808f5000ebff35001e0090001a
:101c88000000e800100798009e0090005e00900099
:101c9800808f5000e1ff35000080fa000000060048
:101ca8000200fa00000f78001e0078000000e00033
:101cb80002003d001e00ea00010037001e00780007
:081cc8000080fa000000060094
:020000040000fa
:101cd000840b000004020000000000000008000067
:101ce00084030000020000000000000000008000eb
:101cf00080c0c000e0e0e000e0f0f000f0f0f000b4
:101d0000f0f0f000f0f0e000f8fcfe00ffff3f0014
:101d10000f070300030101000100000000000000a4
:101d200000000000010f3f007fffff00fff8e00010
:101d3000c0808000000000000000000000000000e3
:101d4000000000000000000000010300030707007e
:101d50000f0f0f000f1f1e001e1e1e001e1e1e0056
:101d60001e1f70007070700070f0f000f0f0f00056
:101d7000f01000000000000000ffff00ffffff0068
:101d8000030000000000000000ffff00ffffff0055
:101d90000000000000000000101f1f001f1f1f0098
:101da0000000000000808000c0c0e000e0e0f00023
:101db000707070007070700070f0e000e0e0c000c3
:101dc0007c7e7f007f7f7f00070100000000000015
:101dd00000000000000000000001c300ff00000040
:101de000000000000000000000808000c0c0e00093
:101df000f0f0f800fcfe7f003f3f3c003c3c3e0022
:101e00003e3e3f003f3f3f003f3f3f003b3b3900ee
:101e100039383800383838000000000080c0e00051
:101e2000e0f0f00070783800383838003838380082
:101e30007870f000f0e000000002030003030300ec
:101e400003010000008080008080c000c0c0e0006e
:101e5000e0f0ff00fff0f800f8f8f800f8080000e4
:101e6000000000000303030003030300070707004b
:101e70000f9ffe00000307000f0f1f001f1e3e00f4
:101e80003c3c3c003c3c3c003c3c3e001e1e1f00d9
:101e90001f0f000000000000000000000000000014
:101ea0000080c000e0f0f800f8f8f800f8f818003a
:101eb0000800000080c0e000f0f0f8007c3e1f0049
:101ec0000f0703000100ff00ffffff00ff000000fd
:101ed0000e0f0f000f0f0f000f0e0e000e0e0e0054
:101ee0000e0e0e000effff00ffffff000e0e0000a3
:101ef00000000000000000000000000000000000e2
:101f0000000008000f0f0f000f0f08000000f8007e
:101f1000f8f8f800f8f83800383838003838380061
:101f20003838380038383800383800007f7f7f0074
:101f30007f7f7f0038383c001c1c1c001c1c1c00d0
:101f40001c1c3c0038387800f0f0f000f0f0f00095
:101f50008000000000000000000000000000000001
:101f60000000000000000100030707000f0f0f0032
:101f70000e1e1c001c1c1c001c1c1c001c0e0e0039
:101f80000f0f000000000000000000000000000033
:101f90008080c000c0e0e000f0f070007878300091
:101fa00030008000e0f0f800fcfcfe00ffff77004e
:101fb0007f3b3b0039393800383878007070f000ca
:101fc0003fffff00ffffff00c38100000000000093
:101fd0000000000000000000000000000000000001
:101fe00000010300030707000f0f0e001e1c1c005a
:101ff0001c1c1c001c1c1c001e0e0e000f38380080
:102000003838380038383800383838003838380030
:1020100038383800b8f8f800f8f800000000000080
:10202000000000000000000080c0e000f0f8fe00aa
:102030007f3f1f000f030100000000000080c00070
:10204000f0f8fc00fe7f3f000f07030001000000d6
:102050000000000000000000020707000f0f07004b
:10206000010000000000000000000000000000006f
:10207000000000000000000080c0c000e0e0e000c0
:10208000f0707000707070007070f000e0e0e000c0
:10209000c0000000000f9f00bfffff00f9f0f0003c
:1020a000e0e0e000e0e0e000e0f0f000f9ffff0039
:1020b000f8fcfe00ffff87000303010001000000a1
:1020c0000000000000000000000101000303000008
:1020d0000103070007070f000e0e1e001c1c1c004a
:1020e0001c1c1c001c1c1c001e0e0e000f000000ff
:1020f00080c0c000e0e0f000707078003838380030
:10210000383838003838780070f0f0007cffff0075
:10211000ffffc300010000000000000000000000fd
:10212000000000000000000000800000010103002a
:1021300007070f000f0e0e001e1c1c001c9c9c00ad
:10214000dcdcfe00eefeff007f000000000000006f
:1021500000040c000c1e1e000e0f0f0007070300ea
:10216000030101000000000000000000000000006a
:10217000000000000002070007070200081c1c0006
:102180001c0817000c161700171617001617170053
:0c2190000500010000010000000000003c
:020000040000fa
:10219c000600fa00000f78001107980042479800db
:1021ac001e0078000000e0000a003500f007200057
:1021bc009e007800808f500006003c001e009000ae
:1021cc000000e000030035001e009000ff0f5000df
:1021dc000200340020002000500037004e409000d8
:1021ec000080fb00e10f500005003200e20f5000b0
:1021fc00320032000000e0001800320046003700c8
:10220c001e0090000000e00001003d00670040004f
:10221c004380de00c700dd001e81400081b8200035
:10222c008100410091407800014178009e009000af
:10223c00e7806000130020008118dd0081407800e9
:10224c00814071004700dd001e01400080b8200075
:10225c0000004100014878002f0037001e0090005c
:10226c000000e00001003d00670040004380de00fc
:10227c00c700dd001e81400081b8200081004100b4
:10228c0091407800014178009e009000e78060004a
:10229c00130020008118dd008140780081c0ea0025
:1022ac00814061004700dd001e01400080b8200025
:1022bc000000410001487800170037001e00900014
:1022cc000000e00001003d00670040004380de009c
:1022dc00c700dd001e81400081b820008100410054
:1022ec0091407800014178009e009000e7806000ea
:1022fc00130020008118dd008140780081406900c6
:10230c004700dd001e01400080b8200000004100a5
:10231c000148780000000000100020000080fa0046
:10232c00000006000400fa008000eb000000eb0047
:10233c002e000700cb00070080072000d20007000a
:10234c0000042000d00007000000eb0010079800ec
:10235c00130037000000eb00000f78000900370075
:10236c001e0090004700dd009e00400080b8200059
:10237c0000804000104078000080fb00c200070085
:10238c001e0fe800f00720009e007800808f5000a0
:10239c00f3ff34001e0090000000e80010079800c6
:1023ac001e009000e30f5000eaff3400c20007004b
:1023bc000080fa00000006000600fa00004f7800ca
:1023cc0011079800220798002e009000c700dd002e
:1023dc001e0090008080400080b8200000804000eb
:1023ec001e4878000080fa00000006000400fa0085
:1023fc00000f7800110798009e009000f007200055
:10240c00808f500009003c001e0090000000e0008e
:10241c00060035001e007800e30f500003003c005e
:10242c001e0078000000e00002003d0020002000ab
:10243c00110037001e007800205c88001e00900000
:10244c00305c8800100220000d0007001e00900078
:10245c000b000700f00720000900070020022000f5
:10246c00070007001e007800050007003000200060
:10247c0003000700100020000080fa000000060096
:10248c000200fa00000f7800760007008007200099
:10249c007d000700000820007b0007001e0078006c
:1024ac0079000700840007000080fa000000060095
:1024bc000200fa00000f78006a0007008007200075
:1024cc0071000700000420006f0007001e00780058
:1024dc006d000700780007000080fa00000006007d
:1024ec000000fa00e00a2000e5ff070000022000cf
:1024fc00e3ff07000000eb00e1ff0700000b2000ea
:10250c00dfff0700800c2000ddff07000000eb0060
:10251c00dbff070000012000d9ff070000042000aa
:10252c00d7ff070010082000d5ff0700f008200097
:10253c00d3ff0700100a2000d1ff0700600a20001b
:10254c00cfff0700800a2000cdff0700f00120001c
:10255c00cbff0700400a2000c9ff0700300d200008
:10256c00c7ff07000000eb00c5ff0700500d20005f
:10257c00c3ff0700000f2000c1ff0700900d2000d3
:10258c00bfff070020022000bdff0700a00d2000a8
:10259c00bbff070020002000b9ff0700b00d200092
:1025ac00b7ff070000042000b5ff0700d00820008b
:1025bc00b3ff070040012000b1ff0700f00a200024
:1025cc00afff07000080fa00000006000400fa00cc
:1025dc008000eb000000eb0084ff07000000eb0024
:1025ec0010079800140037000000eb00000f780073
:1025fc000a0037000000eb00adff07001e00900042
:10260c004700dd009e00400080b8200000804000a4
:10261c008040eb00014878001e0fe800f007200016
:10262c009e007800808f5000f2ff34001e00900056
:10263c000000e800100798001e009000e30f500007
:10264c00e9ff34000080fa00000006000000fa00e8
:10265c00200320002010880007e2a8000080fa0068
:10266c00000006000000fa000602a80000000000ae
:10267c0030108000610060000000e000fcff3a00b8
:10268c000080fa00000006000200fa00000f78003b
:10269c009e0078001110880000000000411080009e
:1026ac0000002400008060000000e000fbff3a0006
:1026bc000080fa00000006000000fa000642a800a4
:1026cc000000000030108000640060000000e0009a
:1026dc00fcff3a000080fa00000006000000fa003f
:1026ec00a822ef000080eb0030168800ca22ef0011
:1026fc00cc22ef00d022ef00d222ef00d622ef0046
:10270c00de22ef00e222ef00d0ff070074ff07008b
:10271c00aeff0700200020001ffd07001400200062
:10272c0003022000020820008000eb000000eb00f8
:10273c0099f907000002eb0013002000e23c28008e
:10274c008100200000012000a8fc0700f5fe070016
:04275c00ffff370044
:020000040000fa
:0200000401f009
:04000000eabf000053
:020000040000fa
:0200000401f009
:04000400ff7f00007a
:020000040000fa
:0200000401f009
:04000800ffff0000f6
:020000040000fa
:0200000401f009
:04001400ffff0000ea
:020000040000fa
:0200000401f009
:04001800ffff0000e6
:00000001FF
